{
  "contractName": "ExampleCoinShield",
  "abi": [
    {
      "constant": true,
      "inputs": [],
      "name": "coin",
      "outputs": [
        {
          "name": "",
          "type": "address"
        }
      ],
      "payable": false,
      "stateMutability": "view",
      "type": "function"
    },
    {
      "constant": true,
      "inputs": [],
      "name": "v",
      "outputs": [
        {
          "name": "",
          "type": "address"
        }
      ],
      "payable": false,
      "stateMutability": "view",
      "type": "function"
    },
    {
      "constant": true,
      "inputs": [],
      "name": "owner",
      "outputs": [
        {
          "name": "",
          "type": "address"
        }
      ],
      "payable": false,
      "stateMutability": "view",
      "type": "function"
    },
    {
      "constant": true,
      "inputs": [],
      "name": "_owner",
      "outputs": [
        {
          "name": "",
          "type": "address"
        }
      ],
      "payable": false,
      "stateMutability": "view",
      "type": "function"
    },
    {
      "constant": true,
      "inputs": [
        {
          "name": "",
          "type": "bytes32"
        }
      ],
      "name": "zs",
      "outputs": [
        {
          "name": "",
          "type": "bytes32"
        }
      ],
      "payable": false,
      "stateMutability": "view",
      "type": "function"
    },
    {
      "constant": false,
      "inputs": [
        {
          "name": "newOwner",
          "type": "address"
        }
      ],
      "name": "transferOwnership",
      "outputs": [],
      "payable": false,
      "stateMutability": "nonpayable",
      "type": "function"
    },
    {
      "inputs": [
        {
          "name": "_verifierContract",
          "type": "address"
        },
        {
          "name": "_coin",
          "type": "address"
        }
      ],
      "payable": false,
      "stateMutability": "nonpayable",
      "type": "constructor"
    },
    {
      "anonymous": false,
      "inputs": [
        {
          "indexed": true,
          "name": "amount",
          "type": "uint256"
        },
        {
          "indexed": true,
          "name": "zCoin",
          "type": "bytes32"
        }
      ],
      "name": "Mint",
      "type": "event"
    },
    {
      "anonymous": false,
      "inputs": [
        {
          "indexed": true,
          "name": "newVerifierContract",
          "type": "address"
        }
      ],
      "name": "VerifierChanged",
      "type": "event"
    },
    {
      "anonymous": false,
      "inputs": [
        {
          "indexed": false,
          "name": "previousOwner",
          "type": "address"
        },
        {
          "indexed": false,
          "name": "newOwner",
          "type": "address"
        }
      ],
      "name": "OwnershipTransferred",
      "type": "event"
    },
    {
      "constant": false,
      "inputs": [
        {
          "name": "newVerifierContract",
          "type": "address"
        }
      ],
      "name": "changeVerifier",
      "outputs": [],
      "payable": false,
      "stateMutability": "nonpayable",
      "type": "function"
    },
    {
      "constant": false,
      "inputs": [],
      "name": "close",
      "outputs": [],
      "payable": false,
      "stateMutability": "nonpayable",
      "type": "function"
    },
    {
      "constant": false,
      "inputs": [
        {
          "name": "amount",
          "type": "uint256"
        },
        {
          "name": "_proof",
          "type": "uint256[]"
        },
        {
          "name": "_inputs",
          "type": "uint256[]"
        },
        {
          "name": "_vkId",
          "type": "bytes32"
        }
      ],
      "name": "mint",
      "outputs": [],
      "payable": true,
      "stateMutability": "payable",
      "type": "function"
    },
    {
      "constant": true,
      "inputs": [],
      "name": "getVerifier",
      "outputs": [
        {
          "name": "",
          "type": "address"
        }
      ],
      "payable": false,
      "stateMutability": "view",
      "type": "function"
    },
    {
      "constant": true,
      "inputs": [],
      "name": "getCoin",
      "outputs": [
        {
          "name": "",
          "type": "address"
        }
      ],
      "payable": false,
      "stateMutability": "view",
      "type": "function"
    }
  ],
  "bytecode": "0x6080604052600060015534801561001557600080fd5b50604051604080610db5833981018060405281019080805190602001909291908051906020019092919050505061005a336100e3640100000000026401000000009004565b81600360006101000a81548173ffffffffffffffffffffffffffffffffffffffff021916908373ffffffffffffffffffffffffffffffffffffffff16021790555080600460006101000a81548173ffffffffffffffffffffffffffffffffffffffff021916908373ffffffffffffffffffffffffffffffffffffffff1602179055505050610126565b806000806101000a81548173ffffffffffffffffffffffffffffffffffffffff021916908373ffffffffffffffffffffffffffffffffffffffff16021790555050565b610c80806101356000396000f3006080604052600436106100af576000357c0100000000000000000000000000000000000000000000000000000000900463ffffffff16806311df9995146100b45780632762efb51461010b57806343d726d61461016257806346657fe9146101795780637c2efcba146101d05780638da5cb5b14610227578063a19b789d1461027e578063b2bdfa7b14610332578063cf04fb9414610389578063e830e257146103cc578063f2fde38b14610419575b600080fd5b3480156100c057600080fd5b506100c961045c565b604051808273ffffffffffffffffffffffffffffffffffffffff1673ffffffffffffffffffffffffffffffffffffffff16815260200191505060405180910390f35b34801561011757600080fd5b50610120610482565b604051808273ffffffffffffffffffffffffffffffffffffffff1673ffffffffffffffffffffffffffffffffffffffff16815260200191505060405180910390f35b34801561016e57600080fd5b506101776104ac565b005b34801561018557600080fd5b5061018e610527565b604051808273ffffffffffffffffffffffffffffffffffffffff1673ffffffffffffffffffffffffffffffffffffffff16815260200191505060405180910390f35b3480156101dc57600080fd5b506101e5610551565b604051808273ffffffffffffffffffffffffffffffffffffffff1673ffffffffffffffffffffffffffffffffffffffff16815260200191505060405180910390f35b34801561023357600080fd5b5061023c610577565b604051808273ffffffffffffffffffffffffffffffffffffffff1673ffffffffffffffffffffffffffffffffffffffff16815260200191505060405180910390f35b61033060048036038101908080359060200190929190803590602001908201803590602001908080602002602001604051908101604052809392919081815260200183836020028082843782019150505050505091929192908035906020019082018035906020019080806020026020016040519081016040528093929190818152602001838360200280828437820191505050505050919291929080356000191690602001909291905050506105a0565b005b34801561033e57600080fd5b506103476109e6565b604051808273ffffffffffffffffffffffffffffffffffffffff1673ffffffffffffffffffffffffffffffffffffffff16815260200191505060405180910390f35b34801561039557600080fd5b506103ca600480360381019080803573ffffffffffffffffffffffffffffffffffffffff169060200190929190505050610a0b565b005b3480156103d857600080fd5b506103fb6004803603810190808035600019169060200190929190505050610ad2565b60405180826000191660001916815260200191505060405180910390f35b34801561042557600080fd5b5061045a600480360381019080803573ffffffffffffffffffffffffffffffffffffffff169060200190929190505050610aea565b005b600460009054906101000a900473ffffffffffffffffffffffffffffffffffffffff1681565b6000600460009054906101000a900473ffffffffffffffffffffffffffffffffffffffff16905090565b6104b4610577565b73ffffffffffffffffffffffffffffffffffffffff163373ffffffffffffffffffffffffffffffffffffffff161415156104ed57600080fd5b6000809054906101000a900473ffffffffffffffffffffffffffffffffffffffff1673ffffffffffffffffffffffffffffffffffffffff16ff5b6000600360009054906101000a900473ffffffffffffffffffffffffffffffffffffffff16905090565b600360009054906101000a900473ffffffffffffffffffffffffffffffffffffffff1681565b60008060009054906101000a900473ffffffffffffffffffffffffffffffffffffffff16905090565b600080600360009054906101000a900473ffffffffffffffffffffffffffffffffffffffff1673ffffffffffffffffffffffffffffffffffffffff16634292dc3e8686866040518463ffffffff167c01000000000000000000000000000000000000000000000000000000000281526004018080602001806020018460001916600019168152602001838103835286818151815260200191508051906020019060200280838360005b83811015610664578082015181840152602081019050610649565b50505050905001838103825285818151815260200191508051906020019060200280838360005b838110156106a657808201518184015260208101905061068b565b5050505090500195505050505050602060405180830381600087803b1580156106ce57600080fd5b505af11580156106e2573d6000803e3d6000fd5b505050506040513d60208110156106f857600080fd5b810190808051906020019092919050505091508115156107a6576040517f08c379a000000000000000000000000000000000000000000000000000000000815260040180806020018281038252602f8152602001807f5468652070726f6f6620686173206e6f74206265656e2076657269666965642081526020017f62792074686520636f6e7472616374000000000000000000000000000000000081525060400191505060405180910390fd5b600460009054906101000a900473ffffffffffffffffffffffffffffffffffffffff1673ffffffffffffffffffffffffffffffffffffffff166323b872dd3330896040518463ffffffff167c0100000000000000000000000000000000000000000000000000000000028152600401808473ffffffffffffffffffffffffffffffffffffffff1673ffffffffffffffffffffffffffffffffffffffff1681526020018373ffffffffffffffffffffffffffffffffffffffff1673ffffffffffffffffffffffffffffffffffffffff1681526020018281526020019350505050602060405180830381600087803b15801561089f57600080fd5b505af11580156108b3573d6000803e3d6000fd5b505050506040513d60208110156108c957600080fd5b810190808051906020019092919050505050858460008151811015156108eb57fe5b9060200190602002015114151561096a576040517f08c379a00000000000000000000000000000000000000000000000000000000081526004018080602001828103825260178152602001807f5061796d656e7420616d6f756e74206d69736d6174636800000000000000000081525060200191505060405180910390fd5b83600181518110151561097957fe5b9060200190602002015160010290508060026000836000191660001916815260200190815260200160002081600019169055508060001916867fa1b5a5ca3372cb8497824d875a6262debd1f02d8a4a4b3970b79e283bdd6404b60405160405180910390a3505050505050565b6000809054906101000a900473ffffffffffffffffffffffffffffffffffffffff1681565b610a13610577565b73ffffffffffffffffffffffffffffffffffffffff163373ffffffffffffffffffffffffffffffffffffffff16141515610a4c57600080fd5b80600360006101000a81548173ffffffffffffffffffffffffffffffffffffffff021916908373ffffffffffffffffffffffffffffffffffffffff1602179055508073ffffffffffffffffffffffffffffffffffffffff167eaccbf0787bf565863b49aef6d6d8ff2f631f1da95c76e016aed7a21a11a7b760405160405180910390a250565b60026020528060005260406000206000915090505481565b610af2610577565b73ffffffffffffffffffffffffffffffffffffffff163373ffffffffffffffffffffffffffffffffffffffff16141515610b2b57600080fd5b600073ffffffffffffffffffffffffffffffffffffffff168173ffffffffffffffffffffffffffffffffffffffff1614151515610b6757600080fd5b7f8be0079c531659141344cd1fd0a4f28419497f9722a3daafe3b4186f6b6457e0610b90610577565b82604051808373ffffffffffffffffffffffffffffffffffffffff1673ffffffffffffffffffffffffffffffffffffffff1681526020018273ffffffffffffffffffffffffffffffffffffffff1673ffffffffffffffffffffffffffffffffffffffff1681526020019250505060405180910390a1610c0e81610c11565b50565b806000806101000a81548173ffffffffffffffffffffffffffffffffffffffff021916908373ffffffffffffffffffffffffffffffffffffffff160217905550505600a165627a7a72305820f1124cee5b37c9b661c8ad08f6f4c3c8877fe5b6dee0ff0122e660201d49f9050029",
  "source": "/**\n@notice © Copyright 2018 EYGS LLP and/or other members of the global Ernst & Young/EY network; pat. pending.\n\nExample contract to enable the management of ZKSnark-hidden coin transactions.\nOnly a (very basic) 'mint' function is given in this example implementation. In reality a 'transfer' and 'burn' function would be required.\n\nDo not use this example in any production code!\n*/\n\npragma solidity ^0.4.24;\n\nimport \"./Ownable.sol\"; //Ownable functions allow the initializer to be re-initialised every time an upgrade happens\nimport \"./Coin.sol\"; //ERC-20 contract\nimport \"./Verifier_Interface.sol\";\n\ncontract ExampleCoinShield is Ownable {\n\n    event Mint(uint256 indexed amount, bytes32 indexed zCoin);\n\n    event VerifierChanged(address indexed newVerifierContract);\n\n\n    uint private balance = 0;\n    mapping(bytes32 => bytes32) public zs; //mapping holding the commitments.\n    Verifier_Interface public v; //the verification smart contract\n    Coin public coin; //the Coin ERC20-like token contract\n\n\n    constructor(address _verifierContract, address _coin) public {\n        v = Verifier_Interface(_verifierContract);\n        coin = Coin(_coin);\n    }\n\n    //function to change the address of the underlying Verifier contract\n    function changeVerifier(address newVerifierContract) public onlyOwner {\n        v = Verifier_Interface(newVerifierContract);\n        emit VerifierChanged(newVerifierContract);\n    }\n\n    /**\n    self destruct\n    */\n    function close() public onlyOwner {\n        selfdestruct(_owner);\n    }\n\n    /**\n    The mint function accepts coin and creates the same amount as a commitment.\n    */\n    function mint(uint256 amount, uint256[] _proof, uint256[] _inputs, bytes32 _vkId) public payable {\n\n        bool result = v.verify(_proof, _inputs, _vkId);\n\n        require(result, \"The proof has not been verified by the contract\");\n\n        //transfer coin from the sender to this contract\n        coin.transferFrom(msg.sender, address(this), amount);\n        require(_inputs[0]==amount, \"Payment amount mismatch\"); //check we've been correctly paid\n\n        bytes32 z = bytes32(_inputs[1]);\n\n        zs[z] = z; //add the token\n\n        emit Mint(amount, z);\n    }\n\n\n    function getVerifier() public view returns(address){\n        return address(v);\n    }\n\n    function getCoin() public view returns(address){\n        return address(coin);\n    }\n\n}\n",
  "sourcePath": "/Users/em137vl/git/zksnark-verifier-standard/implementation/contracts/ExampleCoinShield.sol",
  "compiler": {
    "name": "solc",
    "version": "0.4.24+commit.e67f0147.Emscripten.clang"
  },
  "schemaVersion": "3.0.1",
  "updatedAt": "2019-03-04T11:58:28.557Z",
  "devdoc": {
    "methods": {
      "owner()": {
        "details": "Tells the address of the owner",
        "return": "the address of the owner"
      },
      "transferOwnership(address)": {
        "details": "Allows the current owner to transfer control of the contract to a newOwner.",
        "params": {
          "newOwner": "The address to transfer ownership to."
        }
      }
    }
  },
  "userdoc": {
    "methods": {
      "close()": {
        "notice": "self destruct"
      },
      "mint(uint256,uint256[],uint256[],bytes32)": {
        "notice": "The mint function accepts coin and creates the same amount as a commitment."
      }
    }
  }
}