{
  "contractName": "GM17_v0",
  "abi": [
    {
      "constant": true,
      "inputs": [
        {
          "name": "",
          "type": "uint256"
        }
      ],
      "name": "_this",
      "outputs": [
        {
          "name": "",
          "type": "address"
        }
      ],
      "payable": false,
      "stateMutability": "view",
      "type": "function"
    },
    {
      "constant": true,
      "inputs": [],
      "name": "R",
      "outputs": [
        {
          "name": "",
          "type": "address"
        }
      ],
      "payable": false,
      "stateMutability": "view",
      "type": "function"
    },
    {
      "constant": true,
      "inputs": [],
      "name": "owner",
      "outputs": [
        {
          "name": "",
          "type": "address"
        }
      ],
      "payable": false,
      "stateMutability": "view",
      "type": "function"
    },
    {
      "constant": true,
      "inputs": [],
      "name": "_owner",
      "outputs": [
        {
          "name": "",
          "type": "address"
        }
      ],
      "payable": false,
      "stateMutability": "view",
      "type": "function"
    },
    {
      "constant": false,
      "inputs": [
        {
          "name": "newOwner",
          "type": "address"
        }
      ],
      "name": "transferOwnership",
      "outputs": [],
      "payable": false,
      "stateMutability": "nonpayable",
      "type": "function"
    },
    {
      "inputs": [
        {
          "name": "_registry",
          "type": "address"
        }
      ],
      "payable": false,
      "stateMutability": "nonpayable",
      "type": "constructor"
    },
    {
      "anonymous": false,
      "inputs": [
        {
          "indexed": true,
          "name": "_proofId",
          "type": "bytes32"
        },
        {
          "indexed": true,
          "name": "_vkId",
          "type": "bytes32"
        }
      ],
      "name": "Verified",
      "type": "event"
    },
    {
      "anonymous": false,
      "inputs": [
        {
          "indexed": true,
          "name": "_proofId",
          "type": "bytes32"
        },
        {
          "indexed": true,
          "name": "_vkId",
          "type": "bytes32"
        }
      ],
      "name": "NotVerified",
      "type": "event"
    },
    {
      "anonymous": false,
      "inputs": [
        {
          "indexed": false,
          "name": "previousOwner",
          "type": "address"
        },
        {
          "indexed": false,
          "name": "newOwner",
          "type": "address"
        }
      ],
      "name": "OwnershipTransferred",
      "type": "event"
    },
    {
      "constant": false,
      "inputs": [
        {
          "name": "_owner",
          "type": "address"
        },
        {
          "name": "_registry",
          "type": "address"
        }
      ],
      "name": "initialize",
      "outputs": [],
      "payable": false,
      "stateMutability": "nonpayable",
      "type": "function"
    },
    {
      "constant": false,
      "inputs": [
        {
          "name": "_proof",
          "type": "uint256[]"
        },
        {
          "name": "_inputs",
          "type": "uint256[]"
        },
        {
          "name": "_vkId",
          "type": "bytes32"
        }
      ],
      "name": "verify",
      "outputs": [
        {
          "name": "",
          "type": "bool"
        }
      ],
      "payable": false,
      "stateMutability": "nonpayable",
      "type": "function"
    },
    {
      "constant": false,
      "inputs": [
        {
          "name": "_proof",
          "type": "uint256[]"
        },
        {
          "name": "_inputs",
          "type": "uint256[]"
        },
        {
          "name": "_vkId",
          "type": "bytes32"
        },
        {
          "name": "_proofId",
          "type": "bytes32"
        }
      ],
      "name": "verify",
      "outputs": [
        {
          "name": "",
          "type": "bool"
        }
      ],
      "payable": false,
      "stateMutability": "nonpayable",
      "type": "function"
    },
    {
      "constant": false,
      "inputs": [
        {
          "name": "_proof",
          "type": "uint256[]"
        },
        {
          "name": "_inputs",
          "type": "uint256[]"
        },
        {
          "name": "_vkId",
          "type": "bytes32"
        }
      ],
      "name": "verificationCalculation",
      "outputs": [
        {
          "name": "",
          "type": "uint256"
        }
      ],
      "payable": false,
      "stateMutability": "nonpayable",
      "type": "function"
    }
  ],
  "bytecode": "0x60806040523480156200001157600080fd5b50604051602080620028c7833981018060405281019080805190602001909291905050506200004f33620000d6640100000000026401000000009004565b620000698162000119640100000000026401000000009004565b60023090806001815401808255809150509060018203906000526020600020016000909192909190916101000a81548173ffffffffffffffffffffffffffffffffffffffff021916908373ffffffffffffffffffffffffffffffffffffffff1602179055505050620002f3565b806000806101000a81548173ffffffffffffffffffffffffffffffffffffffff021916908373ffffffffffffffffffffffffffffffffffffffff16021790555050565b80600160006101000a81548173ffffffffffffffffffffffffffffffffffffffff021916908373ffffffffffffffffffffffffffffffffffffffff160217905550600160009054906101000a900473ffffffffffffffffffffffffffffffffffffffff1673ffffffffffffffffffffffffffffffffffffffff1663a385e598306040518263ffffffff167c0100000000000000000000000000000000000000000000000000000000028152600401808273ffffffffffffffffffffffffffffffffffffffff1673ffffffffffffffffffffffffffffffffffffffff168152602001915050602060405180830381600087803b1580156200021857600080fd5b505af11580156200022d573d6000803e3d6000fd5b505050506040513d60208110156200024457600080fd5b81019080805190602001909291905050501515620002f0576040517f08c379a00000000000000000000000000000000000000000000000000000000081526004018080602001828103825260318152602001807f526567697374726174696f6e206f66207468697320566572696669657220636f81526020017f6e747261637420686173206661696c656400000000000000000000000000000081525060400191505060405180910390fd5b50565b6125c480620003036000396000f300608060405260043610610099576000357c0100000000000000000000000000000000000000000000000000000000900463ffffffff1680633caf575c1461009e5780634292dc3e1461010b578063485cc955146101da5780634980e1be1461023d5780638c601cb7146102945780638da5cb5b14610371578063b2bdfa7b146103c8578063f0eb53bb1461041f578063f2fde38b146104ea575b600080fd5b3480156100aa57600080fd5b506100c96004803603810190808035906020019092919050505061052d565b604051808273ffffffffffffffffffffffffffffffffffffffff1673ffffffffffffffffffffffffffffffffffffffff16815260200191505060405180910390f35b34801561011757600080fd5b506101c06004803603810190808035906020019082018035906020019080806020026020016040519081016040528093929190818152602001838360200280828437820191505050505050919291929080359060200190820180359060200190808060200260200160405190810160405280939291908181526020018383602002808284378201915050505050509192919290803560001916906020019092919050505061056b565b604051808215151515815260200191505060405180910390f35b3480156101e657600080fd5b5061023b600480360381019080803573ffffffffffffffffffffffffffffffffffffffff169060200190929190803573ffffffffffffffffffffffffffffffffffffffff16906020019092919050505061079f565b005b34801561024957600080fd5b506102526107ec565b604051808273ffffffffffffffffffffffffffffffffffffffff1673ffffffffffffffffffffffffffffffffffffffff16815260200191505060405180910390f35b3480156102a057600080fd5b50610357600480360381019080803590602001908201803590602001908080602002602001604051908101604052809392919081815260200183836020028082843782019150505050505091929192908035906020019082018035906020019080806020026020016040519081016040528093929190818152602001838360200280828437820191505050505050919291929080356000191690602001909291908035600019169060200190929190505050610812565b604051808215151515815260200191505060405180910390f35b34801561037d57600080fd5b50610386610a7d565b604051808273ffffffffffffffffffffffffffffffffffffffff1673ffffffffffffffffffffffffffffffffffffffff16815260200191505060405180910390f35b3480156103d457600080fd5b506103dd610aa6565b604051808273ffffffffffffffffffffffffffffffffffffffff1673ffffffffffffffffffffffffffffffffffffffff16815260200191505060405180910390f35b34801561042b57600080fd5b506104d460048036038101908080359060200190820180359060200190808060200260200160405190810160405280939291908181526020018383602002808284378201915050505050509192919290803590602001908201803590602001908080602002602001604051908101604052809392919081815260200183836020028082843782019150505050505091929192908035600019169060200190929190505050610acb565b6040518082815260200191505060405180910390f35b3480156104f657600080fd5b5061052b600480360381019080803573ffffffffffffffffffffffffffffffffffffffff1690602001909291905050506116e5565b005b60028181548110151561053c57fe5b906000526020600020016000915054906101000a900473ffffffffffffffffffffffffffffffffffffffff1681565b600080600160009054906101000a900473ffffffffffffffffffffffffffffffffffffffff1673ffffffffffffffffffffffffffffffffffffffff1663ea874afa868686306040518563ffffffff167c010000000000000000000000000000000000000000000000000000000002815260040180806020018060200185600019166000191681526020018473ffffffffffffffffffffffffffffffffffffffff1673ffffffffffffffffffffffffffffffffffffffff168152602001838103835287818151815260200191508051906020019060200280838360005b83811015610662578082015181840152602081019050610647565b50505050905001838103825286818151815260200191508051906020019060200280838360005b838110156106a4578082015181840152602081019050610689565b505050509050019650505050505050602060405180830381600087803b1580156106cd57600080fd5b505af11580156106e1573d6000803e3d6000fd5b505050506040513d60208110156106f757600080fd5b810190808051906020019092919050505090506000610717868686610acb565b141561075c57826000191681600019167f5c83c73bb0b96f8bc4b95aabcb7980de29ee8ec40cf1aa83c5bd999b4407755760405160405180910390a360019150610797565b826000191681600019167f7b2d99d427f2bf0e1bb814bc421c26946be0b83ce5fae52847a511a978e6b94560405160405180910390a3600091505b509392505050565b600060149054906101000a900460ff161515156107bb57600080fd5b6107c48261180c565b6107cd8161184f565b6001600060146101000a81548160ff0219169083151502179055505050565b600160009054906101000a900473ffffffffffffffffffffffffffffffffffffffff1681565b6000600160009054906101000a900473ffffffffffffffffffffffffffffffffffffffff1673ffffffffffffffffffffffffffffffffffffffff1663a87ef60a86866040518363ffffffff167c0100000000000000000000000000000000000000000000000000000000028152600401808060200180602001838103835285818151815260200191508051906020019060200280838360005b838110156108c65780820151818401526020810190506108ab565b50505050905001838103825284818151815260200191508051906020019060200280838360005b838110156109085780820151818401526020810190506108ed565b50505050905001945050505050602060405180830381600087803b15801561092f57600080fd5b505af1158015610943573d6000803e3d6000fd5b505050506040513d602081101561095957600080fd5b81019080805190602001909291905050506000191682600019161415156109e8576040517f08c379a000000000000000000000000000000000000000000000000000000000815260040180806020018281038252600f8152602001807f496e76616c69642070726f6f664964000000000000000000000000000000000081525060200191505060405180910390fd5b60006109f5868686610acb565b1415610a3a57826000191682600019167f5c83c73bb0b96f8bc4b95aabcb7980de29ee8ec40cf1aa83c5bd999b4407755760405160405180910390a360019050610a75565b826000191682600019167f7b2d99d427f2bf0e1bb814bc421c26946be0b83ce5fae52847a511a978e6b94560405160405180910390a3600090505b949350505050565b60008060009054906101000a900473ffffffffffffffffffffffffffffffffffffffff16905090565b6000809054906101000a900473ffffffffffffffffffffffffffffffffffffffff1681565b6000610ad561236c565b610add6123a1565b6060600080600060408051908101604052806000815260200160008152509450600160009054906101000a900473ffffffffffffffffffffffffffffffffffffffff1673ffffffffffffffffffffffffffffffffffffffff16636ed5e9ba896040518263ffffffff167c0100000000000000000000000000000000000000000000000000000000028152600401808260001916600019168152602001915050600060405180830381600087803b158015610b9657600080fd5b505af1158015610baa573d6000803e3d6000fd5b505050506040513d6000823e3d601f19601f820116820180604052506020811015610bd457600080fd5b810190808051640100000000811115610bec57600080fd5b82810190506020810184811115610c0257600080fd5b8151856020820283011164010000000082111715610c1f57600080fd5b5050929190505050935060408051908101604052808b6000815181101515610c4357fe5b9060200190602002015181526020018b6001815181101515610c6157fe5b906020019060200201518152508660000181905250604080519081016040528060408051908101604052808d6002815181101515610c9b57fe5b9060200190602002015181526020018d6003815181101515610cb957fe5b90602001906020020151815250815260200160408051908101604052808d6004815181101515610ce557fe5b9060200190602002015181526020018d6005815181101515610d0357fe5b90602001906020020151815250815250866020018190525060408051908101604052808b6006815181101515610d3557fe5b9060200190602002015181526020018b6007815181101515610d5357fe5b90602001906020020151815250866040018190525060408051908101604052806040805190810160405280876000815181101515610d8d57fe5b906020019060200201518152602001876001815181101515610dab57fe5b9060200190602002015181525081526020016040805190810160405280876002815181101515610dd757fe5b906020019060200201518152602001876003815181101515610df557fe5b9060200190602002015181525081525083600001600082015181600001906002610e209291906123bb565b50602082015181600201906002610e389291906123bb565b509050506040805190810160405280856004815181101515610e5657fe5b906020019060200201518152602001856005815181101515610e7457fe5b9060200190602002015181525083600401600082015181600001556020820151816001015590505060408051908101604052806040805190810160405280876006815181101515610ec157fe5b906020019060200201518152602001876007815181101515610edf57fe5b9060200190602002015181525081526020016040805190810160405280876008815181101515610f0b57fe5b906020019060200201518152602001876009815181101515610f2957fe5b9060200190602002015181525081525083600601600082015181600001906002610f549291906123bb565b50602082015181600201906002610f6c9291906123bb565b50905050604080519081016040528085600a815181101515610f8a57fe5b90602001906020020151815260200185600b815181101515610fa857fe5b9060200190602002015181525083600a0160008201518160000155602082015181600101559050506040805190810160405280604080519081016040528087600c815181101515610ff557fe5b90602001906020020151815260200187600d81518110151561101357fe5b906020019060200201518152508152602001604080519081016040528087600e81518110151561103f57fe5b90602001906020020151815260200187600f81518110151561105d57fe5b9060200190602002015181525081525083600c016000820151816000019060026110889291906123bb565b506020820151816002019060026110a09291906123bb565b50905050600260108551038115156110b457fe5b0483601001816110c491906123fb565b5060009150601090505b835181101561116457604080519081016040528085838151811015156110f057fe5b906020019060200201518152602001856001840181518110151561111057fe5b90602001906020020151815250836010018380600101945081548110151561113457fe5b906000526020600020906002020160008201518160000155602082015181600101559050506002810190506110ce565b826010018054905060018a510114151561120c576040517f08c379a000000000000000000000000000000000000000000000000000000000815260040180806020018281038252602c8152602001807f4c656e677468206f6620696e707574735b5d206f7220766b2e7175657279206981526020017f7320696e636f727265637421000000000000000000000000000000000000000081525060400191505060405180910390fd5b600090505b8851811015611293576112848561127f856010016001850181548110151561123557fe5b9060005260206000209060020201604080519081016040529081600082015481526020016001820154815250508c8581518110151561127057fe5b90602001906020020151611a25565b611ac1565b94508080600101915050611211565b6112db858460100160008154811015156112a957fe5b906000526020600020906002020160408051908101604052908160008201548152602001600182015481525050611ac1565b94506115b78360040160408051908101604052908160008201548152602001600182015481525050846006016040805190810160405290816000820160028060200260405190810160405280929190826002801561134e576020028201915b81548152602001906001019080831161133a575b5050505050815260200160028201600280602002604051908101604052809291908260028015611393576020028201915b81548152602001906001019080831161137f575b5050505050815250508786600c01604080519081016040529081600082016002806020026040519081016040528092919082600280156113e8576020028201915b8154815260200190600101908083116113d4575b505050505081526020016002820160028060200260405190810160405280929190826002801561142d576020028201915b815481526020019060010190808311611419575b5050505050815250508a604001518860000160408051908101604052908160008201600280602002604051908101604052809291908260028015611486576020028201915b815481526020019060010190808311611472575b50505050508152602001600282016002806020026040519081016040528092919082600280156114cb576020028201915b8154815260200190600101908083116114b7575b50505050508152505061150c6115078e600001518c60040160408051908101604052908160008201548152602001600182015481525050611ac1565b611b7e565b6115b28e602001518c6006016040805190810160405290816000820160028060200260405190810160405280929190826002801561155f576020028201915b81548152602001906001019080831161154b575b50505050508152602001600282016002806020026040519081016040528092919082600280156115a4576020028201915b815481526020019060010190808311611590575b505050505081525050611c19565b611e4b565b15156115c657600196506116d8565b61169c866000015184600c0160408051908101604052908160008201600280602002604051908101604052809291908260028015611619576020028201915b815481526020019060010190808311611605575b505050505081526020016002820160028060200260405190810160405280929190826002801561165e576020028201915b81548152602001906001019080831161164a575b50505050508152505061169286600a0160408051908101604052908160008201548152602001600182015481525050611b7e565b8960200151611fce565b15156116ab57600296506116d8565b6116b361236c565b95506116bd6123a1565b9450606093508260100160006116d3919061242d565b600096505b5050505050509392505050565b6116ed610a7d565b73ffffffffffffffffffffffffffffffffffffffff163373ffffffffffffffffffffffffffffffffffffffff1614151561172657600080fd5b600073ffffffffffffffffffffffffffffffffffffffff168173ffffffffffffffffffffffffffffffffffffffff161415151561176257600080fd5b7f8be0079c531659141344cd1fd0a4f28419497f9722a3daafe3b4186f6b6457e061178b610a7d565b82604051808373ffffffffffffffffffffffffffffffffffffffff1673ffffffffffffffffffffffffffffffffffffffff1681526020018273ffffffffffffffffffffffffffffffffffffffff1673ffffffffffffffffffffffffffffffffffffffff1681526020019250505060405180910390a16118098161180c565b50565b806000806101000a81548173ffffffffffffffffffffffffffffffffffffffff021916908373ffffffffffffffffffffffffffffffffffffffff16021790555050565b80600160006101000a81548173ffffffffffffffffffffffffffffffffffffffff021916908373ffffffffffffffffffffffffffffffffffffffff160217905550600160009054906101000a900473ffffffffffffffffffffffffffffffffffffffff1673ffffffffffffffffffffffffffffffffffffffff1663a385e598306040518263ffffffff167c0100000000000000000000000000000000000000000000000000000000028152600401808273ffffffffffffffffffffffffffffffffffffffff1673ffffffffffffffffffffffffffffffffffffffff168152602001915050602060405180830381600087803b15801561194d57600080fd5b505af1158015611961573d6000803e3d6000fd5b505050506040513d602081101561197757600080fd5b81019080805190602001909291905050501515611a22576040517f08c379a00000000000000000000000000000000000000000000000000000000081526004018080602001828103825260318152602001807f526567697374726174696f6e206f66207468697320566572696669657220636f81526020017f6e747261637420686173206661696c656400000000000000000000000000000081525060400191505060405180910390fd5b50565b611a2d6123a1565b611a35612451565b60008460000151826000600381101515611a4b57fe5b6020020181815250508460200151826001600381101515611a6857fe5b60200201818152505083826002600381101515611a8157fe5b602002018181525050606083608084600060076107d05a03f190508060008114611aaa57611aac565bfe5b50801515611ab957600080fd5b505092915050565b611ac96123a1565b611ad1612474565b60008460000151826000600481101515611ae757fe5b6020020181815250508460200151826001600481101515611b0457fe5b6020020181815250508360000151826002600481101515611b2157fe5b6020020181815250508360200151826003600481101515611b3e57fe5b60200201818152505060608360c084600060066107d05a03f190508060008114611b6757611b69565bfe5b50801515611b7657600080fd5b505092915050565b611b866123a1565b60007f30644e72e131a029b85045b68181585d97816a916871ca8d3c208c16d87cfd47905060008360000151148015611bc3575060008360200151145b15611be65760408051908101604052806000815260200160008152509150611c13565b604080519081016040528084600001518152602001828560200151811515611c0a57fe5b06830381525091505b50919050565b611c21612497565b73__BN256G2_______________________________6361a931ec84600001516001600281101515611c4e57fe5b602002015185600001516000600281101515611c6657fe5b602002015186602001516001600281101515611c7e57fe5b602002015187602001516000600281101515611c9657fe5b602002015187600001516001600281101515611cae57fe5b602002015188600001516000600281101515611cc657fe5b602002015189602001516001600281101515611cde57fe5b60200201518a602001516000600281101515611cf657fe5b60200201516040518963ffffffff167c0100000000000000000000000000000000000000000000000000000000028152600401808981526020018881526020018781526020018681526020018581526020018481526020018381526020018281526020019850505050505050505060806040518083038186803b158015611d7c57600080fd5b505af4158015611d90573d6000803e3d6000fd5b505050506040513d6080811015611da657600080fd5b810190808051906020019092919080519060200190929190805190602001909291908051906020019092919050505084600001516001600281101515611de857fe5b6020020185600001516000600281101515611dff57fe5b6020020186602001516001600281101515611e1657fe5b6020020187602001516000600281101515611e2d57fe5b60200201848152508481525084815250848152505050505092915050565b60006060806004604051908082528060200260200182016040528015611e8b57816020015b611e786124be565b815260200190600190039081611e705790505b5091506004604051908082528060200260200182016040528015611ec957816020015b611eb66124d8565b815260200190600190039081611eae5790505b5090508a826000815181101515611edc57fe5b9060200190602002018190525088826001815181101515611ef957fe5b9060200190602002018190525086826002815181101515611f1657fe5b9060200190602002018190525084826003815181101515611f3357fe5b9060200190602002018190525089816000815181101515611f5057fe5b9060200190602002018190525087816001815181101515611f6d57fe5b9060200190602002018190525085816002815181101515611f8a57fe5b9060200190602002018190525083816003815181101515611fa757fe5b90602001906020020181905250611fbe82826120d9565b9250505098975050505050505050565b6000606080600260405190808252806020026020018201604052801561200e57816020015b611ffb6124be565b815260200190600190039081611ff35790505b509150600260405190808252806020026020018201604052801561204c57816020015b6120396124d8565b8152602001906001900390816120315790505b5090508682600081518110151561205f57fe5b906020019060200201819052508482600181518110151561207c57fe5b906020019060200201819052508581600081518110151561209957fe5b90602001906020020181905250838160018151811015156120b657fe5b906020019060200201819052506120cd82826120d9565b92505050949350505050565b6000806000606060006120ea6124ff565b6000875189511415156120fc57600080fd5b88519550600686029450846040519080825280602002602001820160405280156121355781602001602082028038833980820191505090505b509350600092505b8583101561231257888381518110151561215357fe5b9060200190602002015160000151846000600686020181518110151561217557fe5b9060200190602002018181525050888381518110151561219157fe5b906020019060200201516020015184600160068602018151811015156121b357fe5b906020019060200201818152505087838151811015156121cf57fe5b906020019060200201516000015160006002811015156121eb57fe5b6020020151846002600686020181518110151561220457fe5b9060200190602002018181525050878381518110151561222057fe5b9060200190602002015160000151600160028110151561223c57fe5b6020020151846003600686020181518110151561225557fe5b9060200190602002018181525050878381518110151561227157fe5b9060200190602002015160200151600060028110151561228d57fe5b602002015184600460068602018151811015156122a657fe5b906020019060200201818152505087838151811015156122c257fe5b906020019060200201516020015160016002811015156122de57fe5b602002015184600560068602018151811015156122f757fe5b9060200190602002018181525050828060010193505061213d565b6020826020870260208701600060086107d05a03f19050806000811461233757612339565bfe5b5080151561234657600080fd5b600082600060018110151561235757fe5b60200201511415965050505050505092915050565b610100604051908101604052806123816124be565b815260200161238e6124d8565b815260200161239b6124be565b81525090565b604080519081016040528060008152602001600081525090565b82600281019282156123ea579160200282015b828111156123e95782518255916020019190600101906123ce565b5b5090506123f79190612522565b5090565b815481835581811115612428576002028160020283600052602060002091820191016124279190612547565b5b505050565b508054600082556002029060005260206000209081019061244e9190612547565b50565b606060405190810160405280600390602082028038833980820191505090505090565b608060405190810160405280600490602082028038833980820191505090505090565b6080604051908101604052806124ab612576565b81526020016124b8612576565b81525090565b604080519081016040528060008152602001600081525090565b6080604051908101604052806124ec612576565b81526020016124f9612576565b81525090565b602060405190810160405280600190602082028038833980820191505090505090565b61254491905b80821115612540576000816000905550600101612528565b5090565b90565b61257391905b8082111561256f5760008082016000905560018201600090555060020161254d565b5090565b90565b60408051908101604052806002906020820280388339808201915050905050905600a165627a7a72305820a897b2bb45b5a877b0d8c539d97c8941742516ea71cbc91fd2a7096187b484b90029",
  "source": "/**\nCREDITS:\n\n// For the Elliptic Curve Pairing operations and functions verify() and verifyCalculation():\n// This file is MIT Licensed.\n//\n// Copyright 2017 Christian Reitwiessner\n// Permission is hereby granted, free of charge, to any person obtaining a copy of this software and associated documentation files (the \"Software\"), to deal in the Software without restriction, including without limitation the rights to use, copy, modify, merge, publish, distribute, sublicense, and/or sell copies of the Software, and to permit persons to whom the Software is furnished to do so, subject to the following conditions:\n// The above copyright notice and this permission notice shall be included in all copies or substantial portions of the Software.\n// THE SOFTWARE IS PROVIDED \"AS IS\", WITHOUT WARRANTY OF ANY KIND, EXPRESS OR IMPLIED, INCLUDING BUT NOT LIMITED TO THE WARRANTIES OF MERCHANTABILITY, FITNESS FOR A PARTICULAR PURPOSE AND NONINFRINGEMENT. IN NO EVENT SHALL THE AUTHORS OR COPYRIGHT HOLDERS BE LIABLE FOR ANY CLAIM, DAMAGES OR OTHER LIABILITY, WHETHER IN AN ACTION OF CONTRACT, TORT OR OTHERWISE, ARISING FROM, OUT OF OR IN CONNECTION WITH THE SOFTWARE OR THE USE OR OTHER DEALINGS IN THE SOFTWARE.\n\n\nStandardisation effort:\n\nInterface proposal & example implementation by Michael Connor, EY, 2019, including:\nFunctions, arrangement, logic, inheritance structure, and interactions with a proposed Verifier_Registry interface.\n\nWith thanks to:\nDuncan Westland\nChaitanya Konda\nHarry R\n*/\n\n/**\n@title GM17_v0\n@dev Example Verifier Implementation - GM17 proof verification.\n@notice Do not use this example in any production code!\n*/\n\npragma solidity ^0.4.24;\n\nimport \"./Ownable.sol\"; //Ownable functions allow the initializer to be re-initialised every time an upgrade happens\nimport \"./GM17_lib_v0.sol\";\nimport \"./Pairing_v1.sol\";\nimport \"./Verifier_Registry_Interface.sol\";\n\ncontract GM17_v0 is Ownable {\n\n  using GM17_lib_v0 for GM17_lib_v0.Vk_GM17_v0;\n  using GM17_lib_v0 for GM17_lib_v0.Proof_GM17_v0;\n  using Pairing_v1 for *;\n\n  event Verified(bytes32 indexed _proofId, bytes32 indexed _vkId);\n\n  event NotVerified(bytes32 indexed _proofId, bytes32 indexed _vkId);\n\n\n  bool internal _initialized;\n  Verifier_Registry_Interface public R; //R for 'Registry'\n  address[] public _this;\n\n\n  //constructor will be used in initial tests until proxy gets finalised.\n  constructor(address _registry) public {\n      registerMe(_registry);\n      _this.push(address(this));\n  }\n\n  //this will become the contract's constructor once proxy gets finalised.\n  function initialize(address _owner, address _registry) public {\n      require(!_initialized);\n      setOwner(_owner);\n      registerMe(_registry);\n      _initialized = true;\n  }\n\n  function registerMe(address _registry) internal {\n      R = Verifier_Registry_Interface(_registry);\n      require(R.registerVerifierContract(address(this)), \"Registration of this Verifier contract has failed\");\n  }\n\n\n//DOESN'T WORK IN TRUFFLE TESTS - BUT IT SHOULD.\n  function verify(uint256[] _proof, uint256[] _inputs, bytes32 _vkId) public returns (bool) {\n\n      bytes32 proofId;\n\n      proofId = R.submitProof(_proof, _inputs, _vkId, address(this));\n      //R.attestProof(proofId, _vkId, true);\n\n      if (verificationCalculation(_proof, _inputs, _vkId) == 0) {\n          emit Verified(proofId, _vkId);\n          //R.attestProof(proofId, _vkId, true); //this call after the elliptic curve calculations is what breaks the test. If we replace the elliptic curve check with just 'true', then this calls correctly - so it could be a gas limit thing.\n\n          return true;\n\n      } else {\n          emit NotVerified(proofId, _vkId);\n          //R.attestProof(proofId, _vkId, false); //this call after the elliptic curve calculations is what breaks the test. If we replace the elliptic curve check with just 'true', then this calls correctly - so it could be a gas limit thing.\n\n          return false;\n\n      }\n  }\n\n  function verify(uint256[] _proof, uint256[] _inputs, bytes32 _vkId, bytes32 _proofId) public returns (bool) {\n\n      require(_proofId == R.createNewProofId(_proof, _inputs), \"Invalid proofId\");\n\n      if (verificationCalculation(_proof, _inputs, _vkId) == 0) {\n          emit Verified(_proofId, _vkId);\n\n          return true;\n\n      } else {\n          emit NotVerified(_proofId, _vkId);\n\n          return false;\n\n      }\n  }\n\n  //NOTE: this is an internal function - made public only for truffle testing.\n  function verificationCalculation(uint256[] _proof, uint256[] _inputs, bytes32 _vkId) public returns (uint) {\n\n      GM17_lib_v0.Proof_GM17_v0 memory proof;\n      Points.G1Point memory vk_dot_inputs;\n      uint256[] memory _vk;\n      GM17_lib_v0.Vk_GM17_v0 storage vk;\n\n      vk_dot_inputs = Points.G1Point(0, 0); //initialise\n\n      //get this vk from the registry\n      _vk = R.getVk(_vkId);\n\n      proof.A = Points.G1Point(_proof[0], _proof[1]);\n      proof.B = Points.G2Point([_proof[2], _proof[3]], [_proof[4], _proof[5]]);\n      proof.C = Points.G1Point(_proof[6], _proof[7]);\n\n      vk.H = Points.G2Point([_vk[0],_vk[1]],[_vk[2],_vk[3]]);\n      vk.Galpha = Points.G1Point(_vk[4],_vk[5]);\n      vk.Hbeta = Points.G2Point([_vk[6],_vk[7]],[_vk[8],_vk[9]]);\n      vk.Ggamma = Points.G1Point(_vk[10],_vk[11]);\n      vk.Hgamma = Points.G2Point([_vk[12],_vk[13]],[_vk[14],_vk[15]]);\n\n      vk.query.length = (_vk.length - 16)/2;\n      uint j = 0;\n      for (uint i = 16; i < _vk.length; i+=2) {\n        vk.query[j++] = Points.G1Point(_vk[i],_vk[i+1]);\n      }\n\n      require(_inputs.length + 1 == vk.query.length, \"Length of inputs[] or vk.query is incorrect!\");\n\n      for (i = 0; i < _inputs.length; i++)\n          vk_dot_inputs = Pairing_v1.addition(vk_dot_inputs, Pairing_v1.scalar_mul(vk.query[i + 1], _inputs[i]));\n\n      vk_dot_inputs = Pairing_v1.addition(vk_dot_inputs, vk.query[0]);\n\n      /**\n       * e(A*G^{alpha}, B*H^{beta}) = e(G^{alpha}, H^{beta}) * e(G^{psi}, H^{gamma})\n       *                              * e(C, H)\n       * where psi = \\sum_{i=0}^l input_i pvk.query[i]\n       */\n      if (!Pairing_v1.pairingProd4(vk.Galpha, vk.Hbeta, vk_dot_inputs, vk.Hgamma, proof.C, vk.H, Pairing_v1.negate(Pairing_v1.addition(proof.A, vk.Galpha)), Pairing_v1.addition(proof.B, vk.Hbeta))) {\n          return 1;\n      }\n\n      /**\n       * e(A, H^{gamma}) = e(G^{gamma}, B)\n       */\n      if (!Pairing_v1.pairingProd2(proof.A, vk.Hgamma, Pairing_v1.negate(vk.Ggamma), proof.B)) {\n          return 2;\n      }\n\n      delete proof;\n      delete vk_dot_inputs;\n      delete _vk;\n      delete vk.query;\n\n      return 0;\n\n  }\n\n}\n",
  "sourcePath": "/Users/em137vl/git/zksnark-verifier-standard/implementation/contracts/GM17_v0.sol",
  "compiler": {
    "name": "solc",
    "version": "0.4.24+commit.e67f0147.Emscripten.clang"
  },
  "schemaVersion": "3.0.1",
  "updatedAt": "2019-03-04T11:58:28.675Z",
  "devdoc": {
    "methods": {
      "owner()": {
        "details": "Tells the address of the owner",
        "return": "the address of the owner"
      },
      "transferOwnership(address)": {
        "details": "Allows the current owner to transfer control of the contract to a newOwner.",
        "params": {
          "newOwner": "The address to transfer ownership to."
        }
      }
    }
  },
  "userdoc": {
    "methods": {}
  }
}