{
  "contractName": "PGHR13_v0",
  "abi": [
    {
      "constant": true,
      "inputs": [
        {
          "name": "",
          "type": "uint256"
        }
      ],
      "name": "_this",
      "outputs": [
        {
          "name": "",
          "type": "address"
        }
      ],
      "payable": false,
      "stateMutability": "view",
      "type": "function"
    },
    {
      "constant": true,
      "inputs": [],
      "name": "R",
      "outputs": [
        {
          "name": "",
          "type": "address"
        }
      ],
      "payable": false,
      "stateMutability": "view",
      "type": "function"
    },
    {
      "constant": true,
      "inputs": [],
      "name": "owner",
      "outputs": [
        {
          "name": "",
          "type": "address"
        }
      ],
      "payable": false,
      "stateMutability": "view",
      "type": "function"
    },
    {
      "constant": true,
      "inputs": [],
      "name": "_owner",
      "outputs": [
        {
          "name": "",
          "type": "address"
        }
      ],
      "payable": false,
      "stateMutability": "view",
      "type": "function"
    },
    {
      "constant": false,
      "inputs": [
        {
          "name": "newOwner",
          "type": "address"
        }
      ],
      "name": "transferOwnership",
      "outputs": [],
      "payable": false,
      "stateMutability": "nonpayable",
      "type": "function"
    },
    {
      "inputs": [
        {
          "name": "_registry",
          "type": "address"
        }
      ],
      "payable": false,
      "stateMutability": "nonpayable",
      "type": "constructor"
    },
    {
      "anonymous": false,
      "inputs": [
        {
          "indexed": true,
          "name": "_proofId",
          "type": "bytes32"
        },
        {
          "indexed": true,
          "name": "_vkId",
          "type": "bytes32"
        }
      ],
      "name": "Verified",
      "type": "event"
    },
    {
      "anonymous": false,
      "inputs": [
        {
          "indexed": true,
          "name": "_proofId",
          "type": "bytes32"
        },
        {
          "indexed": true,
          "name": "_vkId",
          "type": "bytes32"
        }
      ],
      "name": "NotVerified",
      "type": "event"
    },
    {
      "anonymous": false,
      "inputs": [
        {
          "indexed": false,
          "name": "previousOwner",
          "type": "address"
        },
        {
          "indexed": false,
          "name": "newOwner",
          "type": "address"
        }
      ],
      "name": "OwnershipTransferred",
      "type": "event"
    },
    {
      "constant": false,
      "inputs": [
        {
          "name": "_owner",
          "type": "address"
        },
        {
          "name": "_registry",
          "type": "address"
        }
      ],
      "name": "initialize",
      "outputs": [],
      "payable": false,
      "stateMutability": "nonpayable",
      "type": "function"
    },
    {
      "constant": false,
      "inputs": [
        {
          "name": "_proof",
          "type": "uint256[]"
        },
        {
          "name": "_inputs",
          "type": "uint256[]"
        },
        {
          "name": "_vkId",
          "type": "bytes32"
        }
      ],
      "name": "verify",
      "outputs": [
        {
          "name": "result",
          "type": "bool"
        }
      ],
      "payable": false,
      "stateMutability": "nonpayable",
      "type": "function"
    },
    {
      "constant": false,
      "inputs": [
        {
          "name": "_proof",
          "type": "uint256[]"
        },
        {
          "name": "_inputs",
          "type": "uint256[]"
        },
        {
          "name": "_vkId",
          "type": "bytes32"
        },
        {
          "name": "_proofId",
          "type": "bytes32"
        }
      ],
      "name": "verify",
      "outputs": [
        {
          "name": "",
          "type": "bool"
        }
      ],
      "payable": false,
      "stateMutability": "nonpayable",
      "type": "function"
    },
    {
      "constant": false,
      "inputs": [
        {
          "name": "_proof",
          "type": "uint256[]"
        },
        {
          "name": "_inputs",
          "type": "uint256[]"
        },
        {
          "name": "_vkId",
          "type": "bytes32"
        }
      ],
      "name": "verificationCalculation",
      "outputs": [
        {
          "name": "",
          "type": "uint256"
        }
      ],
      "payable": false,
      "stateMutability": "nonpayable",
      "type": "function"
    }
  ],
  "bytecode": "0x60806040523480156200001157600080fd5b5060405160208062002da1833981018060405281019080805190602001909291905050506200004f33620000d6640100000000026401000000009004565b620000698162000119640100000000026401000000009004565b60023090806001815401808255809150509060018203906000526020600020016000909192909190916101000a81548173ffffffffffffffffffffffffffffffffffffffff021916908373ffffffffffffffffffffffffffffffffffffffff1602179055505050620002f3565b806000806101000a81548173ffffffffffffffffffffffffffffffffffffffff021916908373ffffffffffffffffffffffffffffffffffffffff16021790555050565b80600160006101000a81548173ffffffffffffffffffffffffffffffffffffffff021916908373ffffffffffffffffffffffffffffffffffffffff160217905550600160009054906101000a900473ffffffffffffffffffffffffffffffffffffffff1673ffffffffffffffffffffffffffffffffffffffff1663a385e598306040518263ffffffff167c0100000000000000000000000000000000000000000000000000000000028152600401808273ffffffffffffffffffffffffffffffffffffffff1673ffffffffffffffffffffffffffffffffffffffff168152602001915050602060405180830381600087803b1580156200021857600080fd5b505af11580156200022d573d6000803e3d6000fd5b505050506040513d60208110156200024457600080fd5b81019080805190602001909291905050501515620002f0576040517f08c379a00000000000000000000000000000000000000000000000000000000081526004018080602001828103825260318152602001807f526567697374726174696f6e206f66207468697320566572696669657220636f81526020017f6e747261637420686173206661696c656400000000000000000000000000000081525060400191505060405180910390fd5b50565b612a9e80620003036000396000f300608060405260043610610099576000357c0100000000000000000000000000000000000000000000000000000000900463ffffffff1680633caf575c1461009e5780634292dc3e1461010b578063485cc955146101da5780634980e1be1461023d5780638c601cb7146102945780638da5cb5b14610371578063b2bdfa7b146103c8578063f0eb53bb1461041f578063f2fde38b146104ea575b600080fd5b3480156100aa57600080fd5b506100c96004803603810190808035906020019092919050505061052d565b604051808273ffffffffffffffffffffffffffffffffffffffff1673ffffffffffffffffffffffffffffffffffffffff16815260200191505060405180910390f35b34801561011757600080fd5b506101c06004803603810190808035906020019082018035906020019080806020026020016040519081016040528093929190818152602001838360200280828437820191505050505050919291929080359060200190820180359060200190808060200260200160405190810160405280939291908181526020018383602002808284378201915050505050509192919290803560001916906020019092919050505061056b565b604051808215151515815260200191505060405180910390f35b3480156101e657600080fd5b5061023b600480360381019080803573ffffffffffffffffffffffffffffffffffffffff169060200190929190803573ffffffffffffffffffffffffffffffffffffffff16906020019092919050505061086f565b005b34801561024957600080fd5b506102526108bc565b604051808273ffffffffffffffffffffffffffffffffffffffff1673ffffffffffffffffffffffffffffffffffffffff16815260200191505060405180910390f35b3480156102a057600080fd5b506103576004803603810190808035906020019082018035906020019080806020026020016040519081016040528093929190818152602001838360200280828437820191505050505050919291929080359060200190820180359060200190808060200260200160405190810160405280939291908181526020018383602002808284378201915050505050509192919290803560001916906020019092919080356000191690602001909291905050506108e2565b604051808215151515815260200191505060405180910390f35b34801561037d57600080fd5b50610386610b4d565b604051808273ffffffffffffffffffffffffffffffffffffffff1673ffffffffffffffffffffffffffffffffffffffff16815260200191505060405180910390f35b3480156103d457600080fd5b506103dd610b76565b604051808273ffffffffffffffffffffffffffffffffffffffff1673ffffffffffffffffffffffffffffffffffffffff16815260200191505060405180910390f35b34801561042b57600080fd5b506104d460048036038101908080359060200190820180359060200190808060200260200160405190810160405280939291908181526020018383602002808284378201915050505050509192919290803590602001908201803590602001908080602002602001604051908101604052809392919081815260200183836020028082843782019150505050505091929192908035600019169060200190929190505050610b9b565b6040518082815260200191505060405180910390f35b3480156104f657600080fd5b5061052b600480360381019080803573ffffffffffffffffffffffffffffffffffffffff169060200190929190505050611b7e565b005b60028181548110151561053c57fe5b906000526020600020016000915054906101000a900473ffffffffffffffffffffffffffffffffffffffff1681565b600080600160009054906101000a900473ffffffffffffffffffffffffffffffffffffffff1673ffffffffffffffffffffffffffffffffffffffff1663ea874afa868686306040518563ffffffff167c010000000000000000000000000000000000000000000000000000000002815260040180806020018060200185600019166000191681526020018473ffffffffffffffffffffffffffffffffffffffff1673ffffffffffffffffffffffffffffffffffffffff168152602001838103835287818151815260200191508051906020019060200280838360005b83811015610662578082015181840152602081019050610647565b50505050905001838103825286818151815260200191508051906020019060200280838360005b838110156106a4578082015181840152602081019050610689565b505050509050019650505050505050602060405180830381600087803b1580156106cd57600080fd5b505af11580156106e1573d6000803e3d6000fd5b505050506040513d60208110156106f757600080fd5b810190808051906020019092919050505090506000610717868686610b9b565b141561075c57826000191681600019167f5c83c73bb0b96f8bc4b95aabcb7980de29ee8ec40cf1aa83c5bd999b4407755760405160405180910390a360019150610797565b826000191681600019167f7b2d99d427f2bf0e1bb814bc421c26946be0b83ce5fae52847a511a978e6b94560405160405180910390a3600091505b600160009054906101000a900473ffffffffffffffffffffffffffffffffffffffff1673ffffffffffffffffffffffffffffffffffffffff1663f0a1ec2b8285856040518463ffffffff167c01000000000000000000000000000000000000000000000000000000000281526004018084600019166000191681526020018360001916600019168152602001821515151581526020019350505050600060405180830381600087803b15801561084c57600080fd5b505af1158015610860573d6000803e3d6000fd5b50505050819150509392505050565b600060149054906101000a900460ff1615151561088b57600080fd5b61089482611ca5565b61089d81611ce8565b6001600060146101000a81548160ff0219169083151502179055505050565b600160009054906101000a900473ffffffffffffffffffffffffffffffffffffffff1681565b6000600160009054906101000a900473ffffffffffffffffffffffffffffffffffffffff1673ffffffffffffffffffffffffffffffffffffffff1663a87ef60a86866040518363ffffffff167c0100000000000000000000000000000000000000000000000000000000028152600401808060200180602001838103835285818151815260200191508051906020019060200280838360005b8381101561099657808201518184015260208101905061097b565b50505050905001838103825284818151815260200191508051906020019060200280838360005b838110156109d85780820151818401526020810190506109bd565b50505050905001945050505050602060405180830381600087803b1580156109ff57600080fd5b505af1158015610a13573d6000803e3d6000fd5b505050506040513d6020811015610a2957600080fd5b8101908080519060200190929190505050600019168260001916141515610ab8576040517f08c379a000000000000000000000000000000000000000000000000000000000815260040180806020018281038252600f8152602001807f496e76616c69642070726f6f664964000000000000000000000000000000000081525060200191505060405180910390fd5b6000610ac5868686610b9b565b1415610b0a57826000191682600019167f5c83c73bb0b96f8bc4b95aabcb7980de29ee8ec40cf1aa83c5bd999b4407755760405160405180910390a360019050610b45565b826000191682600019167f7b2d99d427f2bf0e1bb814bc421c26946be0b83ce5fae52847a511a978e6b94560405160405180910390a3600090505b949350505050565b60008060009054906101000a900473ffffffffffffffffffffffffffffffffffffffff16905090565b6000809054906101000a900473ffffffffffffffffffffffffffffffffffffffff1681565b6000610ba5612805565b610bad61287b565b6060600080600060408051908101604052806000815260200160008152509450600160009054906101000a900473ffffffffffffffffffffffffffffffffffffffff1673ffffffffffffffffffffffffffffffffffffffff16636ed5e9ba896040518263ffffffff167c0100000000000000000000000000000000000000000000000000000000028152600401808260001916600019168152602001915050600060405180830381600087803b158015610c6657600080fd5b505af1158015610c7a573d6000803e3d6000fd5b505050506040513d6000823e3d601f19601f820116820180604052506020811015610ca457600080fd5b810190808051640100000000811115610cbc57600080fd5b82810190506020810184811115610cd257600080fd5b8151856020820283011164010000000082111715610cef57600080fd5b5050929190505050935060408051908101604052808b6000815181101515610d1357fe5b9060200190602002015181526020018b6001815181101515610d3157fe5b90602001906020020151815250866000018190525060408051908101604052808b6002815181101515610d6057fe5b9060200190602002015181526020018b6003815181101515610d7e57fe5b906020019060200201518152508660200181905250604080519081016040528060408051908101604052808d6004815181101515610db857fe5b9060200190602002015181526020018d6005815181101515610dd657fe5b90602001906020020151815250815260200160408051908101604052808d6006815181101515610e0257fe5b9060200190602002015181526020018d6007815181101515610e2057fe5b90602001906020020151815250815250866040018190525060408051908101604052808b6008815181101515610e5257fe5b9060200190602002015181526020018b6009815181101515610e7057fe5b90602001906020020151815250866060018190525060408051908101604052808b600a815181101515610e9f57fe5b9060200190602002015181526020018b600b815181101515610ebd57fe5b90602001906020020151815250866080018190525060408051908101604052808b600c815181101515610eec57fe5b9060200190602002015181526020018b600d815181101515610f0a57fe5b906020019060200201518152508660a0018190525060408051908101604052808b600e815181101515610f3957fe5b9060200190602002015181526020018b600f815181101515610f5757fe5b906020019060200201518152508660e0018190525060408051908101604052808b6010815181101515610f8657fe5b9060200190602002015181526020018b6011815181101515610fa457fe5b906020019060200201518152508660c0018190525060408051908101604052806040805190810160405280876000815181101515610fde57fe5b906020019060200201518152602001876001815181101515610ffc57fe5b906020019060200201518152508152602001604080519081016040528087600281518110151561102857fe5b90602001906020020151815260200187600381518110151561104657fe5b9060200190602002015181525081525083600001600082015181600001906002611071929190612895565b50602082015181600201906002611089929190612895565b5090505060408051908101604052808560048151811015156110a757fe5b9060200190602002015181526020018560058151811015156110c557fe5b906020019060200201518152508360040160008201518160000155602082015181600101559050506040805190810160405280604080519081016040528087600681518110151561111257fe5b90602001906020020151815260200187600781518110151561113057fe5b906020019060200201518152508152602001604080519081016040528087600881518110151561115c57fe5b90602001906020020151815260200187600981518110151561117a57fe5b90602001906020020151815250815250836006016000820151816000019060026111a5929190612895565b506020820151816002019060026111bd929190612895565b509050506040805190810160405280604080519081016040528087600a8151811015156111e657fe5b90602001906020020151815260200187600b81518110151561120457fe5b906020019060200201518152508152602001604080519081016040528087600c81518110151561123057fe5b90602001906020020151815260200187600d81518110151561124e57fe5b9060200190602002015181525081525083600a01600082015181600001906002611279929190612895565b50602082015181600201906002611291929190612895565b50905050604080519081016040528085600e8151811015156112af57fe5b90602001906020020151815260200185600f8151811015156112cd57fe5b9060200190602002015181525083600e0160008201518160000155602082015181600101559050506040805190810160405280604080519081016040528087601081518110151561131a57fe5b90602001906020020151815260200187601181518110151561133857fe5b906020019060200201518152508152602001604080519081016040528087601281518110151561136457fe5b90602001906020020151815260200187601381518110151561138257fe5b90602001906020020151815250815250836010016000820151816000019060026113ad929190612895565b506020820151816002019060026113c5929190612895565b50905050604080519081016040528060408051908101604052808760148151811015156113ee57fe5b90602001906020020151815260200187601581518110151561140c57fe5b906020019060200201518152508152602001604080519081016040528087601681518110151561143857fe5b90602001906020020151815260200187601781518110151561145657fe5b9060200190602002015181525081525083601401600082015181600001906002611481929190612895565b50602082015181600201906002611499929190612895565b50905050600260188551038115156114ad57fe5b0483601801816114bd91906128d5565b5060009150601890505b835181101561155d57604080519081016040528085838151811015156114e957fe5b906020019060200201518152602001856001840181518110151561150957fe5b90602001906020020151815250836018018380600101945081548110151561152d57fe5b906000526020600020906002020160008201518160000155602082015181600101559050506002810190506114c7565b826018018054905060018a5101141515611605576040517f08c379a00000000000000000000000000000000000000000000000000000000081526004018080602001828103825260298152602001807f4c656e677468206f6620696e707574735b5d206f7220766b2e4943206973206981526020017f6e636f727265637421000000000000000000000000000000000000000000000081525060400191505060405180910390fd5b600090505b885181101561168c5761167d85611678856018016001850181548110151561162e57fe5b9060005260206000209060020201604080519081016040529081600082015481526020016001820154815250508c8581518110151561166957fe5b90602001906020020151611ebe565b611fc3565b9450808060010191505061160a565b6116d4858460180160008154811015156116a257fe5b906000526020600020906002020160408051908101604052908160008201548152602001600182015481525050611fc3565b945061179186600001518460000160408051908101604052908160008201600280602002604051908101604052809291908260028015611729576020028201915b815481526020019060010190808311611715575b505050505081526020016002820160028060200260405190810160405280929190826002801561176e576020028201915b81548152602001906001019080831161175a575b50505050508152505061178489602001516120e9565b61178c612184565b61224e565b15156117a05760019650611b71565b6117e5836004016040805190810160405290816000820154815260200160018201548152505087604001516117d889606001516120e9565b6117e0612184565b61224e565b15156117f45760029650611b71565b6118af86608001518460060160408051908101604052908160008201600280602002604051908101604052809291908260028015611847576020028201915b815481526020019060010190808311611833575b505050505081526020016002820160028060200260405190810160405280929190826002801561188c576020028201915b815481526020019060010190808311611878575b5050505050815250506118a28960a001516120e9565b6118aa612184565b61224e565b15156118be5760039650611b71565b611a508660c0015184600a0160408051908101604052908160008201600280602002604051908101604052809291908260028015611911576020028201915b8154815260200190600101908083116118fd575b5050505050815260200160028201600280602002604051908101604052809291908260028015611956576020028201915b815481526020019060010190808311611942575b50505050508152505061198261197d896119788c600001518d60800151611fc3565b611fc3565b6120e9565b86601001604080519081016040529081600082016002806020026040519081016040528092919082600280156119cd576020028201915b8154815260200190600101908083116119b9575b5050505050815260200160028201600280602002604051908101604052809291908260028015611a12576020028201915b8154815260200190600101908083116119fe575b505050505081525050611a4688600e01604080519081016040529081600082015481526020016001820154815250506120e9565b8b60400151612359565b1515611a5f5760049650611b71565b611b35611a70868860000151611fc3565b8760400151611a828960e001516120e9565b8660140160408051908101604052908160008201600280602002604051908101604052809291908260028015611acd576020028201915b815481526020019060010190808311611ab9575b5050505050815260200160028201600280602002604051908101604052809291908260028015611b12576020028201915b815481526020019060010190808311611afe575b505050505081525050611b288b608001516120e9565b611b30612184565b612359565b1515611b445760059650611b71565b611b4c612805565b9550611b5661287b565b945060609350826018016000611b6c9190612907565b600096505b5050505050509392505050565b611b86610b4d565b73ffffffffffffffffffffffffffffffffffffffff163373ffffffffffffffffffffffffffffffffffffffff16141515611bbf57600080fd5b600073ffffffffffffffffffffffffffffffffffffffff168173ffffffffffffffffffffffffffffffffffffffff1614151515611bfb57600080fd5b7f8be0079c531659141344cd1fd0a4f28419497f9722a3daafe3b4186f6b6457e0611c24610b4d565b82604051808373ffffffffffffffffffffffffffffffffffffffff1673ffffffffffffffffffffffffffffffffffffffff1681526020018273ffffffffffffffffffffffffffffffffffffffff1673ffffffffffffffffffffffffffffffffffffffff1681526020019250505060405180910390a1611ca281611ca5565b50565b806000806101000a81548173ffffffffffffffffffffffffffffffffffffffff021916908373ffffffffffffffffffffffffffffffffffffffff16021790555050565b80600160006101000a81548173ffffffffffffffffffffffffffffffffffffffff021916908373ffffffffffffffffffffffffffffffffffffffff160217905550600160009054906101000a900473ffffffffffffffffffffffffffffffffffffffff1673ffffffffffffffffffffffffffffffffffffffff1663a385e598306040518263ffffffff167c0100000000000000000000000000000000000000000000000000000000028152600401808273ffffffffffffffffffffffffffffffffffffffff1673ffffffffffffffffffffffffffffffffffffffff168152602001915050602060405180830381600087803b158015611de657600080fd5b505af1158015611dfa573d6000803e3d6000fd5b505050506040513d6020811015611e1057600080fd5b81019080805190602001909291905050501515611ebb576040517f08c379a00000000000000000000000000000000000000000000000000000000081526004018080602001828103825260318152602001807f526567697374726174696f6e206f66207468697320566572696669657220636f81526020017f6e747261637420686173206661696c656400000000000000000000000000000081525060400191505060405180910390fd5b50565b611ec661287b565b611ece61292b565b60008460000151826000600381101515611ee457fe5b6020020181815250508460200151826001600381101515611f0157fe5b60200201818152505083826002600381101515611f1a57fe5b602002018181525050606083608084600060076107d05a03f190508060008114611f4357611f45565bfe5b50801515611fbb576040517f08c379a000000000000000000000000000000000000000000000000000000000815260040180806020018281038252601f8152602001807f4543207363616c6172206d756c7469706c69636174696f6e206661696c65640081525060200191505060405180910390fd5b505092915050565b611fcb61287b565b611fd361294e565b60008460000151826000600481101515611fe957fe5b602002018181525050846020015182600160048110151561200657fe5b602002018181525050836000015182600260048110151561202357fe5b602002018181525050836020015182600360048110151561204057fe5b60200201818152505060608360c084600060066107d05a03f1905080600081146120695761206b565bfe5b508015156120e1576040517f08c379a00000000000000000000000000000000000000000000000000000000081526004018080602001828103825260128152602001807f4543206164646974696f6e206661696c6564000000000000000000000000000081525060200191505060405180910390fd5b505092915050565b6120f161287b565b60007f30644e72e131a029b85045b68181585d97816a916871ca8d3c208c16d87cfd4790506000836000015114801561212e575060008360200151145b15612151576040805190810160405280600081526020016000815250915061217e565b60408051908101604052808460000151815260200182856020015181151561217557fe5b06830381525091505b50919050565b61218c612971565b604080519081016040528060408051908101604052807f198e9393920d483a7260bfb731fb5d25f1aa493335a9e71297e485b7aef312c281526020017f1800deef121f1e76426a00665e5c4479674322d4f75edadd46debd5cd992f6ed815250815260200160408051908101604052807f090689d0585ff075ec9e99ad690c3395bc4b313370b38ef355acdadcd122975b81526020017f12c85ea5db8c6deb4aab71808dcb408fe3d1e7690c43d37b4ce6cc0166fa7daa815250815250905090565b6000606080600260405190808252806020026020018201604052801561228e57816020015b61227b612998565b8152602001906001900390816122735790505b50915060026040519080825280602002602001820160405280156122cc57816020015b6122b96129b2565b8152602001906001900390816122b15790505b509050868260008151811015156122df57fe5b90602001906020020181905250848260018151811015156122fc57fe5b906020019060200201819052508581600081518110151561231957fe5b906020019060200201819052508381600181518110151561233657fe5b9060200190602002018190525061234d82826124a0565b92505050949350505050565b6000606080600360405190808252806020026020018201604052801561239957816020015b612386612998565b81526020019060019003908161237e5790505b50915060036040519080825280602002602001820160405280156123d757816020015b6123c46129b2565b8152602001906001900390816123bc5790505b509050888260008151811015156123ea57fe5b906020019060200201819052508682600181518110151561240757fe5b906020019060200201819052508482600281518110151561242457fe5b906020019060200201819052508781600081518110151561244157fe5b906020019060200201819052508581600181518110151561245e57fe5b906020019060200201819052508381600281518110151561247b57fe5b9060200190602002018190525061249282826124a0565b925050509695505050505050565b6000806000606060006124b16129d9565b60008751895114151561252c576040517f08c379a00000000000000000000000000000000000000000000000000000000081526004018080602001828103825260138152602001807f45432070616972696e6720703120213d2070320000000000000000000000000081525060200191505060405180910390fd5b88519550600686029450846040519080825280602002602001820160405280156125655781602001602082028038833980820191505090505b509350600092505b8583101561274257888381518110151561258357fe5b906020019060200201516000015184600060068602018151811015156125a557fe5b906020019060200201818152505088838151811015156125c157fe5b906020019060200201516020015184600160068602018151811015156125e357fe5b906020019060200201818152505087838151811015156125ff57fe5b9060200190602002015160000151600060028110151561261b57fe5b6020020151846002600686020181518110151561263457fe5b9060200190602002018181525050878381518110151561265057fe5b9060200190602002015160000151600160028110151561266c57fe5b6020020151846003600686020181518110151561268557fe5b906020019060200201818152505087838151811015156126a157fe5b906020019060200201516020015160006002811015156126bd57fe5b602002015184600460068602018151811015156126d657fe5b906020019060200201818152505087838151811015156126f257fe5b9060200190602002015160200151600160028110151561270e57fe5b6020020151846005600686020181518110151561272757fe5b9060200190602002018181525050828060010193505061256d565b6020826020870260208701600060086107d05a03f19050806000811461276757612769565bfe5b508015156127df576040517f08c379a000000000000000000000000000000000000000000000000000000000815260040180806020018281038252601d8152602001807f45432050616972696e672063616c63756c6174696f6e206661696c656400000081525060200191505060405180910390fd5b60008260006001811015156127f057fe5b60200201511415965050505050505092915050565b6102406040519081016040528061281a612998565b8152602001612827612998565b81526020016128346129b2565b8152602001612841612998565b815260200161284e612998565b815260200161285b612998565b8152602001612868612998565b8152602001612875612998565b81525090565b604080519081016040528060008152602001600081525090565b82600281019282156128c4579160200282015b828111156128c35782518255916020019190600101906128a8565b5b5090506128d191906129fc565b5090565b815481835581811115612902576002028160020283600052602060002091820191016129019190612a21565b5b505050565b50805460008255600202906000526020600020908101906129289190612a21565b50565b606060405190810160405280600390602082028038833980820191505090505090565b608060405190810160405280600490602082028038833980820191505090505090565b608060405190810160405280612985612a50565b8152602001612992612a50565b81525090565b604080519081016040528060008152602001600081525090565b6080604051908101604052806129c6612a50565b81526020016129d3612a50565b81525090565b602060405190810160405280600190602082028038833980820191505090505090565b612a1e91905b80821115612a1a576000816000905550600101612a02565b5090565b90565b612a4d91905b80821115612a4957600080820160009055600182016000905550600201612a27565b5090565b90565b60408051908101604052806002906020820280388339808201915050905050905600a165627a7a72305820b11506343428624fd371ccf85ed9894cfa25ccf56b9b6ef79223f9b53ae7bffb0029",
  "source": "/**\nCREDITS:\n\n// For the Elliptic Curve Pairing operations and functions verify() and verifyCalculation():\n// This file is MIT Licensed.\n//\n// Copyright 2017 Christian Reitwiessner\n// Permission is hereby granted, free of charge, to any person obtaining a copy of this software and associated documentation files (the \"Software\"), to deal in the Software without restriction, including without limitation the rights to use, copy, modify, merge, publish, distribute, sublicense, and/or sell copies of the Software, and to permit persons to whom the Software is furnished to do so, subject to the following conditions:\n// The above copyright notice and this permission notice shall be included in all copies or substantial portions of the Software.\n// THE SOFTWARE IS PROVIDED \"AS IS\", WITHOUT WARRANTY OF ANY KIND, EXPRESS OR IMPLIED, INCLUDING BUT NOT LIMITED TO THE WARRANTIES OF MERCHANTABILITY, FITNESS FOR A PARTICULAR PURPOSE AND NONINFRINGEMENT. IN NO EVENT SHALL THE AUTHORS OR COPYRIGHT HOLDERS BE LIABLE FOR ANY CLAIM, DAMAGES OR OTHER LIABILITY, WHETHER IN AN ACTION OF CONTRACT, TORT OR OTHERWISE, ARISING FROM, OUT OF OR IN CONNECTION WITH THE SOFTWARE OR THE USE OR OTHER DEALINGS IN THE SOFTWARE.\n\n\nStandardisation effort:\n\nInterface proposal & example implementation by Michael Connor, EY, 2019, including:\nFunctions, arrangement, logic, inheritance structure, and interactions with a proposed Verifier_Registry interface.\n\nWith thanks to:\nDuncan Westland\nChaitanya Konda\nHarry R\n*/\n\n/**\n@title PGHR13_v0\n@dev Example Verifier Implementation - PGHR13 proof verification.\n@notice Do not use this example in any production code!\n*/\n\npragma solidity ^0.4.24;\n\nimport \"./Ownable.sol\"; //Ownable functions allow the initializer to be re-initialised every time an upgrade happens\nimport \"./PGHR13_lib_v0.sol\";\nimport \"./Pairing_v0.sol\";\nimport \"./Verifier_Registry_Interface.sol\";\n\ncontract PGHR13_v0 is Ownable {\n\n  using PGHR13_lib_v0 for PGHR13_lib_v0.Vk_PGHR13_v0;\n  using PGHR13_lib_v0 for PGHR13_lib_v0.Proof_PGHR13_v0;\n  using Pairing_v0 for *;\n\n  event Verified(bytes32 indexed _proofId, bytes32 indexed _vkId);\n\n  event NotVerified(bytes32 indexed _proofId, bytes32 indexed _vkId);\n\n\n  bool internal _initialized;\n  Verifier_Registry_Interface public R; //R for 'Registry'\n  address[] public _this;\n\n\n  //constructor will be used in initial tests until proxy gets finalised.\n  constructor(address _registry) public {\n      registerMe(_registry);\n      _this.push(address(this));\n  }\n\n  //this will become the contract's constructor once proxy gets finalised.\n  function initialize(address _owner, address _registry) public {\n      require(!_initialized);\n      setOwner(_owner);\n      registerMe(_registry);\n      _initialized = true;\n  }\n\n  function registerMe(address _registry) internal {\n      R = Verifier_Registry_Interface(_registry);\n      require(R.registerVerifierContract(address(this)), \"Registration of this Verifier contract has failed\");\n  }\n\n\n//DOESN'T WORK IN TRUFFLE TESTS - BUT IT SHOULD.\n  function verify(uint256[] _proof, uint256[] _inputs, bytes32 _vkId) public returns (bool result) {\n\n      bytes32 proofId;\n\n      proofId = R.submitProof(_proof, _inputs, _vkId, address(this));\n      //R.attestProof(proofId, _vkId, true);\n\n      if (verificationCalculation(_proof, _inputs, _vkId) == 0) {\n          emit Verified(proofId, _vkId);\n          result = true;\n          //R.attestProof(proofId, _vkId, true); //this call after the elliptic curve calculations is what breaks the test. If we replace the elliptic curve check with just 'true', then this calls correctly - so it could be a gas limit thing.\n\n          //return true;\n\n      } else {\n          emit NotVerified(proofId, _vkId);\n          result = false;\n          //R.attestProof(proofId, _vkId, false); //this call after the elliptic curve calculations is what breaks the test. If we replace the elliptic curve check with just 'true', then this calls correctly - so it could be a gas limit thing.\n\n          //return false;\n\n      }\n      R.attestProof(proofId, _vkId, result);\n      //attestProof(proofId, _vkId, result);\n      return result;\n  }\n\n  //function attestProof(bytes32 proofId, bytes32 vkId, bool result) internal {\n  //    R.attestProof(proofId, vkId, result);\n  //}\n\n  function verify(uint256[] _proof, uint256[] _inputs, bytes32 _vkId, bytes32 _proofId) public returns (bool) {\n\n      require(_proofId == R.createNewProofId(_proof, _inputs), \"Invalid proofId\");\n\n      if (verificationCalculation(_proof, _inputs, _vkId) == 0) {\n          emit Verified(_proofId, _vkId);\n\n          return true;\n\n      } else {\n          emit NotVerified(_proofId, _vkId);\n\n          return false;\n\n      }\n  }\n\n  //NOTE: this is an internal function - made public only for truffle testing.\n  function verificationCalculation(uint256[] _proof, uint256[] _inputs, bytes32 _vkId) public returns (uint) {\n\n      PGHR13_lib_v0.Proof_PGHR13_v0 memory proof;\n      Points.G1Point memory vk_dot_inputs;\n      uint256[] memory _vk;\n      PGHR13_lib_v0.Vk_PGHR13_v0 storage vk;\n\n      vk_dot_inputs = Points.G1Point(0, 0); //initialise\n\n      //get this vk from the registry\n      _vk = R.getVk(_vkId);\n\n      proof.A = Points.G1Point(_proof[0], _proof[1]);\n      proof.A_p = Points.G1Point(_proof[2], _proof[3]);\n      proof.B = Points.G2Point([_proof[4], _proof[5]], [_proof[6], _proof[7]]);\n      proof.B_p = Points.G1Point(_proof[8], _proof[9]);\n      proof.C = Points.G1Point(_proof[10], _proof[11]);\n      proof.C_p = Points.G1Point(_proof[12], _proof[13]);\n      proof.H = Points.G1Point(_proof[14], _proof[15]);\n      proof.K = Points.G1Point(_proof[16], _proof[17]);\n\n      vk.A = Points.G2Point([_vk[0],_vk[1]],[_vk[2],_vk[3]]);\n      vk.B = Points.G1Point(_vk[4],_vk[5]);\n      vk.C = Points.G2Point([_vk[6],_vk[7]],[_vk[8],_vk[9]]);\n      vk.gamma = Points.G2Point([_vk[10],_vk[11]],[_vk[12],_vk[13]]);\n      vk.gammaBeta1 = Points.G1Point(_vk[14],_vk[15]);\n      vk.gammaBeta2 = Points.G2Point([_vk[16],_vk[17]],[_vk[18],_vk[19]]);\n      vk.Z = Points.G2Point([_vk[20],_vk[21]],[_vk[22],_vk[23]]);\n\n      vk.IC.length = (_vk.length - 24)/2;\n      uint j = 0;\n      for (uint i = 24; i < _vk.length; i+=2) {\n        vk.IC[j++] = Points.G1Point(_vk[i],_vk[i+1]);\n      }\n\n      require(_inputs.length + 1 == vk.IC.length, \"Length of inputs[] or vk.IC is incorrect!\");\n\n      for (i = 0; i < _inputs.length; i++)\n          vk_dot_inputs = Pairing_v0.addition(vk_dot_inputs, Pairing_v0.scalar_mul(vk.IC[i + 1], _inputs[i]));\n\n      vk_dot_inputs = Pairing_v0.addition(vk_dot_inputs, vk.IC[0]);\n\n\n      if (!Pairing_v0.pairingProd2(proof.A, vk.A, Pairing_v0.negate(proof.A_p), Pairing_v0.P2())) {\n          return 1;\n      }\n\n      if (!Pairing_v0.pairingProd2(vk.B, proof.B, Pairing_v0.negate(proof.B_p), Pairing_v0.P2())) {\n          return 2;\n      }\n\n      if (!Pairing_v0.pairingProd2(proof.C, vk.C, Pairing_v0.negate(proof.C_p), Pairing_v0.P2())) {\n          return 3;\n      }\n\n      if (!Pairing_v0.pairingProd3(\n          proof.K, vk.gamma,\n          Pairing_v0.negate(Pairing_v0.addition(vk_dot_inputs, Pairing_v0.addition(proof.A, proof.C))), vk.gammaBeta2,\n          Pairing_v0.negate(vk.gammaBeta1), proof.B\n      )) {\n          return 4;\n      }\n\n      if (!Pairing_v0.pairingProd3(\n              Pairing_v0.addition(vk_dot_inputs, proof.A), proof.B,\n              Pairing_v0.negate(proof.H), vk.Z,\n              Pairing_v0.negate(proof.C), Pairing_v0.P2()\n      )) {\n          return 5;\n      }\n\n      delete proof;\n      delete vk_dot_inputs;\n      delete _vk;\n      delete vk.IC;\n\n      return 0;\n\n  }\n\n}\n",
  "sourcePath": "/Users/em137vl/git/zksnark-verifier-standard/implementation/contracts/PGHR13_v0.sol",
  "compiler": {
    "name": "solc",
    "version": "0.4.24+commit.e67f0147.Emscripten.clang"
  },
  "schemaVersion": "3.0.1",
  "updatedAt": "2019-03-04T11:58:28.686Z",
  "devdoc": {
    "methods": {
      "owner()": {
        "details": "Tells the address of the owner",
        "return": "the address of the owner"
      },
      "transferOwnership(address)": {
        "details": "Allows the current owner to transfer control of the contract to a newOwner.",
        "params": {
          "newOwner": "The address to transfer ownership to."
        }
      }
    }
  },
  "userdoc": {
    "methods": {}
  }
}