{
  "contractName": "Verifier_Registry",
  "abi": [
    {
      "constant": true,
      "inputs": [
        {
          "name": "",
          "type": "address"
        }
      ],
      "name": "verifierContractRegister",
      "outputs": [
        {
          "name": "contractAddress",
          "type": "address"
        },
        {
          "name": "submitter",
          "type": "address"
        },
        {
          "name": "owner",
          "type": "address"
        },
        {
          "name": "description",
          "type": "string"
        }
      ],
      "payable": false,
      "stateMutability": "view",
      "type": "function"
    },
    {
      "constant": true,
      "inputs": [
        {
          "name": "",
          "type": "bytes32"
        }
      ],
      "name": "proofRegister",
      "outputs": [
        {
          "name": "proofId",
          "type": "bytes32"
        },
        {
          "name": "description",
          "type": "string"
        }
      ],
      "payable": false,
      "stateMutability": "view",
      "type": "function"
    },
    {
      "constant": true,
      "inputs": [
        {
          "name": "",
          "type": "bytes32"
        }
      ],
      "name": "vkRegister",
      "outputs": [
        {
          "name": "vkId",
          "type": "bytes32"
        },
        {
          "name": "vkSubmitter",
          "type": "address"
        },
        {
          "name": "description",
          "type": "string"
        }
      ],
      "payable": false,
      "stateMutability": "view",
      "type": "function"
    },
    {
      "anonymous": false,
      "inputs": [
        {
          "indexed": true,
          "name": "_proofId",
          "type": "bytes32"
        },
        {
          "indexed": false,
          "name": "_proof",
          "type": "uint256[]"
        },
        {
          "indexed": false,
          "name": "_inputs",
          "type": "uint256[]"
        }
      ],
      "name": "NewProofSubmitted",
      "type": "event"
    },
    {
      "anonymous": false,
      "inputs": [
        {
          "indexed": true,
          "name": "_vkId",
          "type": "bytes32"
        }
      ],
      "name": "NewVkRegistered",
      "type": "event"
    },
    {
      "anonymous": false,
      "inputs": [
        {
          "indexed": true,
          "name": "_contractAddress",
          "type": "address"
        }
      ],
      "name": "NewVerifierContractRegistered",
      "type": "event"
    },
    {
      "anonymous": false,
      "inputs": [
        {
          "indexed": true,
          "name": "_proofId",
          "type": "bytes32"
        },
        {
          "indexed": true,
          "name": "_verifier",
          "type": "address"
        },
        {
          "indexed": true,
          "name": "_result",
          "type": "bool"
        }
      ],
      "name": "NewAttestation",
      "type": "event"
    },
    {
      "constant": true,
      "inputs": [
        {
          "name": "_vkId",
          "type": "bytes32"
        }
      ],
      "name": "getVk",
      "outputs": [
        {
          "name": "",
          "type": "uint256[]"
        }
      ],
      "payable": false,
      "stateMutability": "view",
      "type": "function"
    },
    {
      "constant": false,
      "inputs": [
        {
          "name": "_verifierContract",
          "type": "address"
        }
      ],
      "name": "registerVerifierContract",
      "outputs": [
        {
          "name": "",
          "type": "bool"
        }
      ],
      "payable": false,
      "stateMutability": "nonpayable",
      "type": "function"
    },
    {
      "constant": false,
      "inputs": [
        {
          "name": "_vk",
          "type": "uint256[]"
        },
        {
          "name": "_verifierContracts",
          "type": "address[]"
        }
      ],
      "name": "registerVk",
      "outputs": [
        {
          "name": "",
          "type": "bytes32"
        }
      ],
      "payable": false,
      "stateMutability": "nonpayable",
      "type": "function"
    },
    {
      "constant": false,
      "inputs": [
        {
          "name": "_proof",
          "type": "uint256[]"
        },
        {
          "name": "_inputs",
          "type": "uint256[]"
        },
        {
          "name": "_vkId",
          "type": "bytes32"
        }
      ],
      "name": "submitProof",
      "outputs": [
        {
          "name": "",
          "type": "bytes32"
        }
      ],
      "payable": false,
      "stateMutability": "nonpayable",
      "type": "function"
    },
    {
      "constant": false,
      "inputs": [
        {
          "name": "_proof",
          "type": "uint256[]"
        },
        {
          "name": "_inputs",
          "type": "uint256[]"
        },
        {
          "name": "_vkId",
          "type": "bytes32"
        },
        {
          "name": "_verifierContract",
          "type": "address"
        }
      ],
      "name": "submitProof",
      "outputs": [
        {
          "name": "",
          "type": "bytes32"
        }
      ],
      "payable": false,
      "stateMutability": "nonpayable",
      "type": "function"
    },
    {
      "constant": false,
      "inputs": [
        {
          "name": "_proof",
          "type": "uint256[]"
        },
        {
          "name": "_inputs",
          "type": "uint256[]"
        },
        {
          "name": "_vkId",
          "type": "bytes32"
        },
        {
          "name": "_verifierContract",
          "type": "address"
        }
      ],
      "name": "submitProofAndVerify",
      "outputs": [
        {
          "name": "proofId",
          "type": "bytes32"
        },
        {
          "name": "result",
          "type": "bool"
        }
      ],
      "payable": false,
      "stateMutability": "nonpayable",
      "type": "function"
    },
    {
      "constant": false,
      "inputs": [
        {
          "name": "_proofId",
          "type": "bytes32"
        },
        {
          "name": "_vkId",
          "type": "bytes32"
        },
        {
          "name": "_result",
          "type": "bool"
        }
      ],
      "name": "attestProof",
      "outputs": [],
      "payable": false,
      "stateMutability": "nonpayable",
      "type": "function"
    },
    {
      "constant": false,
      "inputs": [
        {
          "name": "_proofIds",
          "type": "bytes32[]"
        },
        {
          "name": "_vkIds",
          "type": "bytes32[]"
        },
        {
          "name": "_results",
          "type": "bool[]"
        }
      ],
      "name": "attestProofs",
      "outputs": [],
      "payable": false,
      "stateMutability": "nonpayable",
      "type": "function"
    },
    {
      "constant": false,
      "inputs": [
        {
          "name": "_proofId",
          "type": "bytes32"
        },
        {
          "name": "_proof",
          "type": "uint256[]"
        },
        {
          "name": "_inputs",
          "type": "uint256[]"
        },
        {
          "name": "_verifierContract",
          "type": "address"
        }
      ],
      "name": "challengeAttestation",
      "outputs": [],
      "payable": false,
      "stateMutability": "nonpayable",
      "type": "function"
    },
    {
      "constant": true,
      "inputs": [
        {
          "name": "_vk",
          "type": "uint256[]"
        }
      ],
      "name": "createNewVkId",
      "outputs": [
        {
          "name": "",
          "type": "bytes32"
        }
      ],
      "payable": false,
      "stateMutability": "pure",
      "type": "function"
    },
    {
      "constant": true,
      "inputs": [
        {
          "name": "_proof",
          "type": "uint256[]"
        },
        {
          "name": "_inputs",
          "type": "uint256[]"
        }
      ],
      "name": "createNewProofId",
      "outputs": [
        {
          "name": "",
          "type": "bytes32"
        }
      ],
      "payable": false,
      "stateMutability": "pure",
      "type": "function"
    },
    {
      "constant": true,
      "inputs": [
        {
          "name": "_proofId",
          "type": "bytes32"
        }
      ],
      "name": "getProofEntryProofId",
      "outputs": [
        {
          "name": "",
          "type": "bytes32"
        }
      ],
      "payable": false,
      "stateMutability": "view",
      "type": "function"
    },
    {
      "constant": true,
      "inputs": [
        {
          "name": "_proofId",
          "type": "bytes32"
        }
      ],
      "name": "getProofEntryVkIds",
      "outputs": [
        {
          "name": "",
          "type": "bytes32[]"
        }
      ],
      "payable": false,
      "stateMutability": "view",
      "type": "function"
    },
    {
      "constant": true,
      "inputs": [
        {
          "name": "_proofId",
          "type": "bytes32"
        }
      ],
      "name": "getProofEntryProofSubmitters",
      "outputs": [
        {
          "name": "",
          "type": "address[]"
        }
      ],
      "payable": false,
      "stateMutability": "view",
      "type": "function"
    },
    {
      "constant": true,
      "inputs": [
        {
          "name": "_proofId",
          "type": "bytes32"
        }
      ],
      "name": "getProofEntryVerifiers",
      "outputs": [
        {
          "name": "",
          "type": "address[]"
        }
      ],
      "payable": false,
      "stateMutability": "view",
      "type": "function"
    },
    {
      "constant": true,
      "inputs": [
        {
          "name": "_proofId",
          "type": "bytes32"
        },
        {
          "name": "_verifier",
          "type": "address"
        }
      ],
      "name": "getProofEntryResult",
      "outputs": [
        {
          "name": "",
          "type": "bool"
        }
      ],
      "payable": false,
      "stateMutability": "view",
      "type": "function"
    },
    {
      "constant": true,
      "inputs": [
        {
          "name": "_proofId",
          "type": "bytes32"
        },
        {
          "name": "_verifier",
          "type": "address"
        }
      ],
      "name": "getProofEntryVerifierCaller",
      "outputs": [
        {
          "name": "",
          "type": "address"
        }
      ],
      "payable": false,
      "stateMutability": "view",
      "type": "function"
    },
    {
      "constant": true,
      "inputs": [
        {
          "name": "_proofId",
          "type": "bytes32"
        }
      ],
      "name": "getProofEntryDescription",
      "outputs": [
        {
          "name": "",
          "type": "string"
        }
      ],
      "payable": false,
      "stateMutability": "view",
      "type": "function"
    },
    {
      "constant": true,
      "inputs": [
        {
          "name": "_vkId",
          "type": "bytes32"
        }
      ],
      "name": "getVkEntryVkId",
      "outputs": [
        {
          "name": "",
          "type": "bytes32"
        }
      ],
      "payable": false,
      "stateMutability": "view",
      "type": "function"
    },
    {
      "constant": true,
      "inputs": [
        {
          "name": "_vkId",
          "type": "bytes32"
        }
      ],
      "name": "getVkEntryVk",
      "outputs": [
        {
          "name": "",
          "type": "uint256[]"
        }
      ],
      "payable": false,
      "stateMutability": "view",
      "type": "function"
    },
    {
      "constant": true,
      "inputs": [
        {
          "name": "_vkId",
          "type": "bytes32"
        }
      ],
      "name": "getVkEntryVkSubmitter",
      "outputs": [
        {
          "name": "",
          "type": "address"
        }
      ],
      "payable": false,
      "stateMutability": "view",
      "type": "function"
    },
    {
      "constant": true,
      "inputs": [
        {
          "name": "_vkId",
          "type": "bytes32"
        }
      ],
      "name": "getVkEntryVerifiers",
      "outputs": [
        {
          "name": "",
          "type": "address[]"
        }
      ],
      "payable": false,
      "stateMutability": "view",
      "type": "function"
    },
    {
      "constant": true,
      "inputs": [
        {
          "name": "_vkId",
          "type": "bytes32"
        }
      ],
      "name": "getVkEntryProofIds",
      "outputs": [
        {
          "name": "",
          "type": "bytes32[]"
        }
      ],
      "payable": false,
      "stateMutability": "view",
      "type": "function"
    },
    {
      "constant": true,
      "inputs": [
        {
          "name": "_vkId",
          "type": "bytes32"
        }
      ],
      "name": "getVkEntryDescription",
      "outputs": [
        {
          "name": "",
          "type": "string"
        }
      ],
      "payable": false,
      "stateMutability": "view",
      "type": "function"
    },
    {
      "constant": true,
      "inputs": [
        {
          "name": "_contractAddress",
          "type": "address"
        }
      ],
      "name": "getVerifierContractAddress",
      "outputs": [
        {
          "name": "",
          "type": "address"
        }
      ],
      "payable": false,
      "stateMutability": "view",
      "type": "function"
    },
    {
      "constant": true,
      "inputs": [
        {
          "name": "_contractAddress",
          "type": "address"
        }
      ],
      "name": "getVerifierContractEntrySubmitter",
      "outputs": [
        {
          "name": "",
          "type": "address"
        }
      ],
      "payable": false,
      "stateMutability": "view",
      "type": "function"
    },
    {
      "constant": true,
      "inputs": [
        {
          "name": "_contractAddress",
          "type": "address"
        }
      ],
      "name": "getVerifierContractEntryOwner",
      "outputs": [
        {
          "name": "",
          "type": "address"
        }
      ],
      "payable": false,
      "stateMutability": "view",
      "type": "function"
    },
    {
      "constant": true,
      "inputs": [
        {
          "name": "_contractAddress",
          "type": "address"
        }
      ],
      "name": "getVerifierContractEntryVkIds",
      "outputs": [
        {
          "name": "",
          "type": "bytes32[]"
        }
      ],
      "payable": false,
      "stateMutability": "view",
      "type": "function"
    },
    {
      "constant": true,
      "inputs": [
        {
          "name": "_contractAddress",
          "type": "address"
        }
      ],
      "name": "getVerifierContractEntryProofIds",
      "outputs": [
        {
          "name": "",
          "type": "bytes32[]"
        }
      ],
      "payable": false,
      "stateMutability": "view",
      "type": "function"
    },
    {
      "constant": true,
      "inputs": [
        {
          "name": "_contractAddress",
          "type": "address"
        }
      ],
      "name": "getVerifierContractEntryDescription",
      "outputs": [
        {
          "name": "",
          "type": "string"
        }
      ],
      "payable": false,
      "stateMutability": "view",
      "type": "function"
    }
  ],
  "bytecode": "0x608060405234801561001057600080fd5b5061431b806100206000396000f3006080604052600436106101a1576000357c0100000000000000000000000000000000000000000000000000000000900463ffffffff1680630954406e146101a6578063166808611461022c578063196557091461031857806328181f741461039b5780632f480c6a14610445578063372531261461059a57806345a03396146106325780634f5bd029146106b8578063577f15341461073b57806364954c1f146107bd5780636749991014610879578063677d10d01461093e5780636ed5e9ba146109c4578063701e0ac314610a4a5780638234adb114610abb57806382f7f76014610b8e5780638e62aa7c14610c26578063922ca22d14610cd057806394476ee714610d1d578063947febcd14610da3578063a385e59814610ea1578063a7ff2a4314610efc578063a87ef60a14610f65578063b1c91d661461102a578063b5f6f73e146110e3578063bd564a2014611174578063c1a614e9146111fa578063cb772eb41461127d578063d00412dc14611303578063dd08cc3014611350578063e932e20214611427578063ea874afa14611513578063f0a1ec2b14611606575b600080fd5b3480156101b257600080fd5b506101d56004803603810190808035600019169060200190929190505050611651565b6040518080602001828103825283818151815260200191508051906020019060200280838360005b838110156102185780820151818401526020810190506101fd565b505050509050019250505060405180910390f35b34801561023857600080fd5b506103166004803603810190808035906020019082018035906020019080806020026020016040519081016040528093929190818152602001838360200280828437820191505050505050919291929080359060200190820180359060200190808060200260200160405190810160405280939291908181526020018383602002808284378201915050505050509192919290803590602001908201803590602001908080602002602001604051908101604052809392919081815260200183836020028082843782019150505050505091929192905050506116cb565b005b34801561032457600080fd5b50610359600480360381019080803573ffffffffffffffffffffffffffffffffffffffff169060200190929190505050611a6f565b604051808273ffffffffffffffffffffffffffffffffffffffff1673ffffffffffffffffffffffffffffffffffffffff16815260200191505060405180910390f35b3480156103a757600080fd5b506103ca6004803603810190808035600019169060200190929190505050611adb565b6040518080602001828103825283818151815260200191508051906020019080838360005b8381101561040a5780820151818401526020810190506103ef565b50505050905090810190601f1680156104375780820380516001836020036101000a031916815260200191505b509250505060405180910390f35b34801561045157600080fd5b50610486600480360381019080803573ffffffffffffffffffffffffffffffffffffffff169060200190929190505050611b9a565b604051808573ffffffffffffffffffffffffffffffffffffffff1673ffffffffffffffffffffffffffffffffffffffff1681526020018473ffffffffffffffffffffffffffffffffffffffff1673ffffffffffffffffffffffffffffffffffffffff1681526020018373ffffffffffffffffffffffffffffffffffffffff1673ffffffffffffffffffffffffffffffffffffffff16815260200180602001828103825283818151815260200191508051906020019080838360005b8381101561055c578082015181840152602081019050610541565b50505050905090810190601f1680156105895780820380516001836020036101000a031916815260200191505b509550505050505060405180910390f35b3480156105a657600080fd5b506105db600480360381019080803573ffffffffffffffffffffffffffffffffffffffff169060200190929190505050611cc2565b6040518080602001828103825283818151815260200191508051906020019060200280838360005b8381101561061e578082015181840152602081019050610603565b505050509050019250505060405180910390f35b34801561063e57600080fd5b506106616004803603810190808035600019169060200190929190505050611d60565b6040518080602001828103825283818151815260200191508051906020019060200280838360005b838110156106a4578082015181840152602081019050610689565b505050509050019250505060405180910390f35b3480156106c457600080fd5b506106f9600480360381019080803573ffffffffffffffffffffffffffffffffffffffff169060200190929190505050611e0c565b604051808273ffffffffffffffffffffffffffffffffffffffff1673ffffffffffffffffffffffffffffffffffffffff16815260200191505060405180910390f35b34801561074757600080fd5b5061079f60048036038101908080359060200190820180359060200190808060200260200160405190810160405280939291908181526020018383602002808284378201915050505050509192919290505050611e78565b60405180826000191660001916815260200191505060405180910390f35b3480156107c957600080fd5b506107fe600480360381019080803573ffffffffffffffffffffffffffffffffffffffff169060200190929190505050611f35565b6040518080602001828103825283818151815260200191508051906020019080838360005b8381101561083e578082015181840152602081019050610823565b50505050905090810190601f16801561086b5780820380516001836020036101000a031916815260200191505b509250505060405180910390f35b34801561088557600080fd5b506109206004803603810190808035906020019082018035906020019080806020026020016040519081016040528093929190818152602001838360200280828437820191505050505050919291929080359060200190820180359060200190808060200260200160405190810160405280939291908181526020018383602002808284378201915050505050509192919290505050612019565b60405180826000191660001916815260200191505060405180910390f35b34801561094a57600080fd5b5061096d60048036038101908080356000191690602001909291905050506123b1565b6040518080602001828103825283818151815260200191508051906020019060200280838360005b838110156109b0578082015181840152602081019050610995565b505050509050019250505060405180910390f35b3480156109d057600080fd5b506109f3600480360381019080803560001916906020019092919050505061245c565b6040518080602001828103825283818151815260200191508051906020019060200280838360005b83811015610a36578082015181840152602081019050610a1b565b505050509050019250505060405180910390f35b348015610a5657600080fd5b50610a7960048036038101908080356000191690602001909291905050506124d1565b604051808273ffffffffffffffffffffffffffffffffffffffff1673ffffffffffffffffffffffffffffffffffffffff16815260200191505060405180910390f35b348015610ac757600080fd5b50610b7060048036038101908080359060200190820180359060200190808060200260200160405190810160405280939291908181526020018383602002808284378201915050505050509192919290803590602001908201803590602001908080602002602001604051908101604052809392919081815260200183836020028082843782019150505050505091929192908035600019169060200190929190505050612518565b60405180826000191660001916815260200191505060405180910390f35b348015610b9a57600080fd5b50610bcf600480360381019080803573ffffffffffffffffffffffffffffffffffffffff169060200190929190505050612807565b6040518080602001828103825283818151815260200191508051906020019060200280838360005b83811015610c12578082015181840152602081019050610bf7565b505050509050019250505060405180910390f35b348015610c3257600080fd5b50610c5560048036038101908080356000191690602001909291905050506128a5565b6040518080602001828103825283818151815260200191508051906020019080838360005b83811015610c95578082015181840152602081019050610c7a565b50505050905090810190601f168015610cc25780820380516001836020036101000a031916815260200191505b509250505060405180910390f35b348015610cdc57600080fd5b50610cff6004803603810190808035600019169060200190929190505050612965565b60405180826000191660001916815260200191505060405180910390f35b348015610d2957600080fd5b50610d4c600480360381019080803560001916906020019092919050505061298d565b6040518080602001828103825283818151815260200191508051906020019060200280838360005b83811015610d8f578082015181840152602081019050610d74565b505050509050019250505060405180910390f35b348015610daf57600080fd5b50610e7860048036038101908080359060200190820180359060200190808060200260200160405190810160405280939291908181526020018383602002808284378201915050505050509192919290803590602001908201803590602001908080602002602001604051908101604052809392919081815260200183836020028082843782019150505050505091929192908035600019169060200190929190803573ffffffffffffffffffffffffffffffffffffffff169060200190929190505050612a39565b604051808360001916600019168152602001821515151581526020019250505060405180910390f35b348015610ead57600080fd5b50610ee2600480360381019080803573ffffffffffffffffffffffffffffffffffffffff1690602001909291905050506131eb565b604051808215151515815260200191505060405180910390f35b348015610f0857600080fd5b50610f4b6004803603810190808035600019169060200190929190803573ffffffffffffffffffffffffffffffffffffffff1690602001909291905050506134ab565b604051808215151515815260200191505060405180910390f35b348015610f7157600080fd5b5061100c600480360381019080803590602001908201803590602001908080602002602001604051908101604052809392919081815260200183836020028082843782019150505050505091929192908035906020019082018035906020019080806020026020016040519081016040528093929190818152602001838360200280828437820191505050505050919291929050505061351e565b60405180826000191660001916815260200191505060405180910390f35b34801561103657600080fd5b506110596004803603810190808035600019169060200190929190505050613611565b60405180836000191660001916815260200180602001828103825283818151815260200191508051906020019080838360005b838110156110a757808201518184015260208101905061108c565b50505050905090810190601f1680156110d45780820380516001836020036101000a031916815260200191505b50935050505060405180910390f35b3480156110ef57600080fd5b506111326004803603810190808035600019169060200190929190803573ffffffffffffffffffffffffffffffffffffffff1690602001909291905050506136cd565b604051808273ffffffffffffffffffffffffffffffffffffffff1673ffffffffffffffffffffffffffffffffffffffff16815260200191505060405180910390f35b34801561118057600080fd5b506111a36004803603810190808035600019169060200190929190505050613753565b6040518080602001828103825283818151815260200191508051906020019060200280838360005b838110156111e65780820151818401526020810190506111cb565b505050509050019250505060405180910390f35b34801561120657600080fd5b5061123b600480360381019080803573ffffffffffffffffffffffffffffffffffffffff1690602001909291905050506137cc565b604051808273ffffffffffffffffffffffffffffffffffffffff1673ffffffffffffffffffffffffffffffffffffffff16815260200191505060405180910390f35b34801561128957600080fd5b506112ac6004803603810190808035600019169060200190929190505050613838565b6040518080602001828103825283818151815260200191508051906020019060200280838360005b838110156112ef5780820151818401526020810190506112d4565b505050509050019250505060405180910390f35b34801561130f57600080fd5b5061133260048036038101908080356000191690602001909291905050506138ad565b60405180826000191660001916815260200191505060405180910390f35b34801561135c57600080fd5b5061142560048036038101908080356000191690602001909291908035906020019082018035906020019080806020026020016040519081016040528093929190818152602001838360200280828437820191505050505050919291929080359060200190820180359060200190808060200260200160405190810160405280939291908181526020018383602002808284378201915050505050509192919290803573ffffffffffffffffffffffffffffffffffffffff1690602001909291905050506138d4565b005b34801561143357600080fd5b5061145660048036038101908080356000191690602001909291905050506138da565b6040518084600019166000191681526020018373ffffffffffffffffffffffffffffffffffffffff1673ffffffffffffffffffffffffffffffffffffffff16815260200180602001828103825283818151815260200191508051906020019080838360005b838110156114d65780820151818401526020810190506114bb565b50505050905090810190601f1680156115035780820380516001836020036101000a031916815260200191505b5094505050505060405180910390f35b34801561151f57600080fd5b506115e860048036038101908080359060200190820180359060200190808060200260200160405190810160405280939291908181526020018383602002808284378201915050505050509192919290803590602001908201803590602001908080602002602001604051908101604052809392919081815260200183836020028082843782019150505050505091929192908035600019169060200190929190803573ffffffffffffffffffffffffffffffffffffffff1690602001909291905050506139bc565b60405180826000191660001916815260200191505060405180910390f35b34801561161257600080fd5b5061164f60048036038101908080356000191690602001909291908035600019169060200190929190803515159060200190929190505050613eb7565b005b60606002600083600019166000191681526020019081526020016000206001018054806020026020016040519081016040528092919081815260200182805480156116bf57602002820191906000526020600020905b815460001916815260200190600101908083116116a7575b50505050509050919050565b600080600080600093505b8651841015611a665786848151811015156116ed57fe5b906020019060200201519250858481518110151561170757fe5b906020019060200201519150848481518110151561172157fe5b906020019060200201519050826000191660026000856000191660001916815260200190815260200160002060000154600019161415156117ca576040517f08c379a000000000000000000000000000000000000000000000000000000000815260040180806020018281038252601a8152602001807f70726f6f664964206e6f7420796574207265676973746572656400000000000081525060200191505060405180910390fd5b816000191660008084600019166000191681526020019081526020016000206000015460001916141515611866576040517f08c379a00000000000000000000000000000000000000000000000000000000081526004018080602001828103825260178152602001807f766b4964206e6f7420796574207265676973746572656400000000000000000081525060200191505060405180910390fd5b6002600084600019166000191681526020019081526020016000206001018290806001815401808255809150509060018203906000526020600020016000909192909190915090600019169055508060026000856000191660001916815260200190815260200160002060040160003373ffffffffffffffffffffffffffffffffffffffff1673ffffffffffffffffffffffffffffffffffffffff16815260200190815260200160002060006101000a81548160ff0219169083151502179055503260026000856000191660001916815260200190815260200160002060050160003273ffffffffffffffffffffffffffffffffffffffff1673ffffffffffffffffffffffffffffffffffffffff16815260200190815260200160002060006101000a81548173ffffffffffffffffffffffffffffffffffffffff021916908373ffffffffffffffffffffffffffffffffffffffff16021790555060008083600019166000191681526020019081526020016000206004018390806001815401808255809150509060018203906000526020600020016000909192909190915090600019169055508015153373ffffffffffffffffffffffffffffffffffffffff1684600019167ff140259f1969eb057e0cf58bc6100b42c21fdb660c031c20a783a5c31aa5383460405160405180910390a483806001019450506116d6565b50505050505050565b6000600460008373ffffffffffffffffffffffffffffffffffffffff1673ffffffffffffffffffffffffffffffffffffffff16815260200190815260200160002060020160009054906101000a900473ffffffffffffffffffffffffffffffffffffffff169050919050565b606060008083600019166000191681526020019081526020016000206005018054600181600116156101000203166002900480601f016020809104026020016040519081016040528092919081815260200182805460018160011615610100020316600290048015611b8e5780601f10611b6357610100808354040283529160200191611b8e565b820191906000526020600020905b815481529060010190602001808311611b7157829003601f168201915b50505050509050919050565b60046020528060005260406000206000915090508060000160009054906101000a900473ffffffffffffffffffffffffffffffffffffffff16908060010160009054906101000a900473ffffffffffffffffffffffffffffffffffffffff16908060020160009054906101000a900473ffffffffffffffffffffffffffffffffffffffff1690806005018054600181600116156101000203166002900480601f016020809104026020016040519081016040528092919081815260200182805460018160011615610100020316600290048015611cb85780601f10611c8d57610100808354040283529160200191611cb8565b820191906000526020600020905b815481529060010190602001808311611c9b57829003601f168201915b5050505050905084565b6060600460008373ffffffffffffffffffffffffffffffffffffffff1673ffffffffffffffffffffffffffffffffffffffff168152602001908152602001600020600401805480602002602001604051908101604052809291908181526020018280548015611d5457602002820191906000526020600020905b81546000191681526020019060010190808311611d3c575b50505050509050919050565b6060600260008360001916600019168152602001908152602001600020600301805480602002602001604051908101604052809291908181526020018280548015611e0057602002820191906000526020600020905b8160009054906101000a900473ffffffffffffffffffffffffffffffffffffffff1673ffffffffffffffffffffffffffffffffffffffff1681526020019060010190808311611db6575b50505050509050919050565b6000600460008373ffffffffffffffffffffffffffffffffffffffff1673ffffffffffffffffffffffffffffffffffffffff16815260200190815260200160002060000160009054906101000a900473ffffffffffffffffffffffffffffffffffffffff169050919050565b6000808260405160200180828051906020019060200280838360005b83811015611eaf578082015181840152602081019050611e94565b505050509050019150506040516020818303038152906040526040518082805190602001908083835b602083101515611efd5780518252602082019150602081019050602083039250611ed8565b6001836020036101000a0380198251168184511680821785525050505050509050019150506040518091039020905080915050919050565b6060600460008373ffffffffffffffffffffffffffffffffffffffff1673ffffffffffffffffffffffffffffffffffffffff1681526020019081526020016000206005018054600181600116156101000203166002900480601f01602080910402602001604051908101604052809291908181526020018280546001816001161561010002031660029004801561200d5780601f10611fe25761010080835404028352916020019161200d565b820191906000526020600020905b815481529060010190602001808311611ff057829003601f168201915b50505050509050919050565b600080600061202785611e78565b9150600060010260008084600019166000191681526020019081526020016000206000015460001916141561207d5781600080846000191660001916815260200190815260200160002060000181600019169055505b600090505b83518110156122e757600060046000868481518110151561209f57fe5b9060200190602002015173ffffffffffffffffffffffffffffffffffffffff1673ffffffffffffffffffffffffffffffffffffffff16815260200190815260200160002060000160009054906101000a900473ffffffffffffffffffffffffffffffffffffffff1673ffffffffffffffffffffffffffffffffffffffff16141515156121b9576040517f08c379a00000000000000000000000000000000000000000000000000000000081526004018080602001828103825260248152602001807f566572696669657220636f6e7472616374206e6f74207965742072656769737481526020017f657265640000000000000000000000000000000000000000000000000000000081525060400191505060405180910390fd5b6004600085838151811015156121cb57fe5b9060200190602002015173ffffffffffffffffffffffffffffffffffffffff1673ffffffffffffffffffffffffffffffffffffffff1681526020019081526020016000206003018290806001815401808255809150509060018203906000526020600020016000909192909190915090600019169055506000808360001916600019168152602001908152602001600020600301848281518110151561226d57fe5b9060200190602002015190806001815401808255809150509060018203906000526020600020016000909192909190916101000a81548173ffffffffffffffffffffffffffffffffffffffff021916908373ffffffffffffffffffffffffffffffffffffffff160217905550508080600101915050612082565b846000808460001916600019168152602001908152602001600020600101908051906020019061231892919061427d565b5033600080846000191660001916815260200190815260200160002060020160006101000a81548173ffffffffffffffffffffffffffffffffffffffff021916908373ffffffffffffffffffffffffffffffffffffffff16021790555081600019167f3dcebd5712edfcfac723d079e962ad98976c70e977cc55810eca67ae6eed519660405160405180910390a2819250505092915050565b6060600080836000191660001916815260200190815260200160002060030180548060200260200160405190810160405280929190818152602001828054801561245057602002820191906000526020600020905b8160009054906101000a900473ffffffffffffffffffffffffffffffffffffffff1673ffffffffffffffffffffffffffffffffffffffff1681526020019060010190808311612406575b50505050509050919050565b606060008083600019166000191681526020019081526020016000206001018054806020026020016040519081016040528092919081815260200182805480156124c557602002820191906000526020600020905b8154815260200190600101908083116124b1575b50505050509050919050565b6000806000836000191660001916815260200190815260200160002060020160009054906101000a900473ffffffffffffffffffffffffffffffffffffffff169050919050565b6000808260001916600080856000191660001916815260200190815260200160002060000154600019161415156125b7576040517f08c379a00000000000000000000000000000000000000000000000000000000081526004018080602001828103825260178152602001807f766b4964206e6f7420796574207265676973746572656400000000000000000081525060200191505060405180910390fd5b6125c1858561351e565b9050600060010260026000836000191660001916815260200190815260200160002060000154600019161415612619578060026000836000191660001916815260200190815260200160002060000181600019169055505b6002600082600019166000191681526020019081526020016000206002013290806001815401808255809150509060018203906000526020600020016000909192909190916101000a81548173ffffffffffffffffffffffffffffffffffffffff021916908373ffffffffffffffffffffffffffffffffffffffff16021790555050600260008260001916600019168152602001908152602001600020600101839080600181540180825580915050906001820390600052602060002001600090919290919091509060001916905550600080846000191660001916815260200190815260200160002060040181908060018154018082558091505090600182039060005260206000200160009091929091909150906000191690555080600019167fdcc57cc7fe9906cf3b23269af6817aee6540d90f9b5d192b4a191a622a4bdcfd8686604051808060200180602001838103835285818151815260200191508051906020019060200280838360005b838110156127a557808201518184015260208101905061278a565b50505050905001838103825284818151815260200191508051906020019060200280838360005b838110156127e75780820151818401526020810190506127cc565b5050505090500194505050505060405180910390a2809150509392505050565b6060600460008373ffffffffffffffffffffffffffffffffffffffff1673ffffffffffffffffffffffffffffffffffffffff16815260200190815260200160002060030180548060200260200160405190810160405280929190818152602001828054801561289957602002820191906000526020600020905b81546000191681526020019060010190808311612881575b50505050509050919050565b60606002600083600019166000191681526020019081526020016000206006018054600181600116156101000203166002900480601f0160208091040260200160405190810160405280929190818152602001828054600181600116156101000203166002900480156129595780601f1061292e57610100808354040283529160200191612959565b820191906000526020600020905b81548152906001019060200180831161293c57829003601f168201915b50505050509050919050565b6000600260008360001916600019168152602001908152602001600020600001549050919050565b6060600260008360001916600019168152602001908152602001600020600201805480602002602001604051908101604052809291908181526020018280548015612a2d57602002820191906000526020600020905b8160009054906101000a900473ffffffffffffffffffffffffffffffffffffffff1673ffffffffffffffffffffffffffffffffffffffff16815260200190600101908083116129e3575b50505050509050919050565b6000806000846000191660008087600019166000191681526020019081526020016000206000015460001916141515612ada576040517f08c379a00000000000000000000000000000000000000000000000000000000081526004018080602001828103825260178152602001807f766b4964206e6f7420796574207265676973746572656400000000000000000081525060200191505060405180910390fd5b6000600460008673ffffffffffffffffffffffffffffffffffffffff1673ffffffffffffffffffffffffffffffffffffffff16815260200190815260200160002060000160009054906101000a900473ffffffffffffffffffffffffffffffffffffffff1673ffffffffffffffffffffffffffffffffffffffff1614151515612bf1576040517f08c379a00000000000000000000000000000000000000000000000000000000081526004018080602001828103825260248152602001807f566572696669657220636f6e7472616374206e6f74207965742072656769737481526020017f657265640000000000000000000000000000000000000000000000000000000081525060400191505060405180910390fd5b612bfb878761351e565b9250600060010260026000856000191660001916815260200190815260200160002060000154600019161415612c53578260026000856000191660001916815260200190815260200160002060000181600019169055505b6002600084600019166000191681526020019081526020016000206002013390806001815401808255809150509060018203906000526020600020016000909192909190916101000a81548173ffffffffffffffffffffffffffffffffffffffff021916908373ffffffffffffffffffffffffffffffffffffffff160217905550506002600084600019166000191681526020019081526020016000206001018590806001815401808255809150509060018203906000526020600020016000909192909190915090600019169055506002600084600019166000191681526020019081526020016000206003018490806001815401808255809150509060018203906000526020600020016000909192909190916101000a81548173ffffffffffffffffffffffffffffffffffffffff021916908373ffffffffffffffffffffffffffffffffffffffff160217905550506000808660001916600019168152602001908152602001600020600401839080600181540180825580915050906001820390600052602060002001600090919290919091509060001916905550600460008573ffffffffffffffffffffffffffffffffffffffff1673ffffffffffffffffffffffffffffffffffffffff16815260200190815260200160002060040183908060018154018082558091505090600182039060005260206000200160009091929091909150906000191690555082600019167fdcc57cc7fe9906cf3b23269af6817aee6540d90f9b5d192b4a191a622a4bdcfd8888604051808060200180602001838103835285818151815260200191508051906020019060200280838360005b83811015612ed3578082015181840152602081019050612eb8565b50505050905001838103825284818151815260200191508051906020019060200280838360005b83811015612f15578082015181840152602081019050612efa565b5050505090500194505050505060405180910390a28390508073ffffffffffffffffffffffffffffffffffffffff16638c601cb7888888876040518563ffffffff167c010000000000000000000000000000000000000000000000000000000002815260040180806020018060200185600019166000191681526020018460001916600019168152602001838103835287818151815260200191508051906020019060200280838360005b83811015612fdb578082015181840152602081019050612fc0565b50505050905001838103825286818151815260200191508051906020019060200280838360005b8381101561301d578082015181840152602081019050613002565b505050509050019650505050505050602060405180830381600087803b15801561304657600080fd5b505af115801561305a573d6000803e3d6000fd5b505050506040513d602081101561307057600080fd5b810190808051906020019092919050505091508115158473ffffffffffffffffffffffffffffffffffffffff1684600019167ff140259f1969eb057e0cf58bc6100b42c21fdb660c031c20a783a5c31aa5383460405160405180910390a48160026000856000191660001916815260200190815260200160002060040160008373ffffffffffffffffffffffffffffffffffffffff1673ffffffffffffffffffffffffffffffffffffffff16815260200190815260200160002060006101000a81548160ff0219169083151502179055503360026000856000191660001916815260200190815260200160002060050160003373ffffffffffffffffffffffffffffffffffffffff1673ffffffffffffffffffffffffffffffffffffffff16815260200190815260200160002060006101000a81548173ffffffffffffffffffffffffffffffffffffffff021916908373ffffffffffffffffffffffffffffffffffffffff1602179055508282925092505094509492505050565b600080600460008473ffffffffffffffffffffffffffffffffffffffff1673ffffffffffffffffffffffffffffffffffffffff16815260200190815260200160002060000160009054906101000a900473ffffffffffffffffffffffffffffffffffffffff1673ffffffffffffffffffffffffffffffffffffffff161415156132dc576040517f08c379a000000000000000000000000000000000000000000000000000000000815260040180806020018281038252601b8152602001807f436f6e747261637420616c72656164792072656769737465726564000000000081525060200191505060405180910390fd5b81600460008473ffffffffffffffffffffffffffffffffffffffff1673ffffffffffffffffffffffffffffffffffffffff16815260200190815260200160002060000160006101000a81548173ffffffffffffffffffffffffffffffffffffffff021916908373ffffffffffffffffffffffffffffffffffffffff16021790555033600460008473ffffffffffffffffffffffffffffffffffffffff1673ffffffffffffffffffffffffffffffffffffffff16815260200190815260200160002060010160006101000a81548173ffffffffffffffffffffffffffffffffffffffff021916908373ffffffffffffffffffffffffffffffffffffffff16021790555033600460008473ffffffffffffffffffffffffffffffffffffffff1673ffffffffffffffffffffffffffffffffffffffff16815260200190815260200160002060020160006101000a81548173ffffffffffffffffffffffffffffffffffffffff021916908373ffffffffffffffffffffffffffffffffffffffff1602179055508173ffffffffffffffffffffffffffffffffffffffff167f8162b5ded0f1f7b1072b8d0217190a5dfe98aa26e6211bc66b1b2c548dbfe8fc60405160405180910390a260019050919050565b600060026000846000191660001916815260200190815260200160002060040160008373ffffffffffffffffffffffffffffffffffffffff1673ffffffffffffffffffffffffffffffffffffffff16815260200190815260200160002060009054906101000a900460ff16905092915050565b600080838360405160200180838051906020019060200280838360005b8381101561355657808201518184015260208101905061353b565b50505050905001828051906020019060200280838360005b8381101561358957808201518184015260208101905061356e565b50505050905001925050506040516020818303038152906040526040518082805190602001908083835b6020831015156135d857805182526020820191506020810190506020830392506135b3565b6001836020036101000a038019825116818451168082178552505050505050905001915050604051809103902090508091505092915050565b6002602052806000526040600020600091509050806000015490806006018054600181600116156101000203166002900480601f0160208091040260200160405190810160405280929190818152602001828054600181600116156101000203166002900480156136c35780601f10613698576101008083540402835291602001916136c3565b820191906000526020600020905b8154815290600101906020018083116136a657829003601f168201915b5050505050905082565b600060026000846000191660001916815260200190815260200160002060050160008373ffffffffffffffffffffffffffffffffffffffff1673ffffffffffffffffffffffffffffffffffffffff16815260200190815260200160002060009054906101000a900473ffffffffffffffffffffffffffffffffffffffff16905092915050565b606060008083600019166000191681526020019081526020016000206004018054806020026020016040519081016040528092919081815260200182805480156137c057602002820191906000526020600020905b815460001916815260200190600101908083116137a8575b50505050509050919050565b6000600460008373ffffffffffffffffffffffffffffffffffffffff1673ffffffffffffffffffffffffffffffffffffffff16815260200190815260200160002060010160009054906101000a900473ffffffffffffffffffffffffffffffffffffffff169050919050565b606060008083600019166000191681526020019081526020016000206001018054806020026020016040519081016040528092919081815260200182805480156138a157602002820191906000526020600020905b81548152602001906001019080831161388d575b50505050509050919050565b60008060008360001916600019168152602001908152602001600020600001549050919050565b50505050565b60006020528060005260406000206000915090508060000154908060020160009054906101000a900473ffffffffffffffffffffffffffffffffffffffff1690806005018054600181600116156101000203166002900480601f0160208091040260200160405190810160405280929190818152602001828054600181600116156101000203166002900480156139b25780601f10613987576101008083540402835291602001916139b2565b820191906000526020600020905b81548152906001019060200180831161399557829003601f168201915b5050505050905083565b6000806000600460008573ffffffffffffffffffffffffffffffffffffffff1673ffffffffffffffffffffffffffffffffffffffff16815260200190815260200160002060000160009054906101000a900473ffffffffffffffffffffffffffffffffffffffff1673ffffffffffffffffffffffffffffffffffffffff1614151515613ad6576040517f08c379a00000000000000000000000000000000000000000000000000000000081526004018080602001828103825260248152602001807f566572696669657220636f6e7472616374206e6f74207965742072656769737481526020017f657265640000000000000000000000000000000000000000000000000000000081525060400191505060405180910390fd5b836000191660008086600019166000191681526020019081526020016000206000015460001916141515613b72576040517f08c379a00000000000000000000000000000000000000000000000000000000081526004018080602001828103825260178152602001807f766b4964206e6f7420796574207265676973746572656400000000000000000081525060200191505060405180910390fd5b613b7c868661351e565b9050600060010260026000836000191660001916815260200190815260200160002060000154600019161415613bd4578060026000836000191660001916815260200190815260200160002060000181600019169055505b6002600082600019166000191681526020019081526020016000206002013290806001815401808255809150509060018203906000526020600020016000909192909190916101000a81548173ffffffffffffffffffffffffffffffffffffffff021916908373ffffffffffffffffffffffffffffffffffffffff160217905550506002600082600019166000191681526020019081526020016000206001018490806001815401808255809150509060018203906000526020600020016000909192909190915090600019169055506002600082600019166000191681526020019081526020016000206003018390806001815401808255809150509060018203906000526020600020016000909192909190916101000a81548173ffffffffffffffffffffffffffffffffffffffff021916908373ffffffffffffffffffffffffffffffffffffffff160217905550506000808560001916600019168152602001908152602001600020600401819080600181540180825580915050906001820390600052602060002001600090919290919091509060001916905550600460008473ffffffffffffffffffffffffffffffffffffffff1673ffffffffffffffffffffffffffffffffffffffff16815260200190815260200160002060040181908060018154018082558091505090600182039060005260206000200160009091929091909150906000191690555080600019167fdcc57cc7fe9906cf3b23269af6817aee6540d90f9b5d192b4a191a622a4bdcfd8787604051808060200180602001838103835285818151815260200191508051906020019060200280838360005b83811015613e54578082015181840152602081019050613e39565b50505050905001838103825284818151815260200191508051906020019060200280838360005b83811015613e96578082015181840152602081019050613e7b565b5050505090500194505050505060405180910390a280915050949350505050565b60008084600019166002600087600019166000191681526020019081526020016000206000015460001916141515613f57576040517f08c379a000000000000000000000000000000000000000000000000000000000815260040180806020018281038252601a8152602001807f70726f6f664964206e6f7420796574207265676973746572656400000000000081525060200191505060405180910390fd5b836000191660008086600019166000191681526020019081526020016000206000015460001916141515613ff3576040517f08c379a00000000000000000000000000000000000000000000000000000000081526004018080602001828103825260178152602001807f766b4964206e6f7420796574207265676973746572656400000000000000000081525060200191505060405180910390fd5b60009150600090505b6002600086600019166000191681526020019081526020016000206001018054905081101561407c5783600019166002600087600019166000191681526020019081526020016000206001018281548110151561405557fe5b906000526020600020015460001916141561406f57600191505b8080600101915050613ffc565b6001151582151514151561411e576040517f08c379a00000000000000000000000000000000000000000000000000000000081526004018080602001828103825260338152602001807f546869732070726f6f66496420686173206e6f74206265656e206173736f636981526020017f617465642077697468207468697320766b49640000000000000000000000000081525060400191505060405180910390fd5b8260026000876000191660001916815260200190815260200160002060040160003373ffffffffffffffffffffffffffffffffffffffff1673ffffffffffffffffffffffffffffffffffffffff16815260200190815260200160002060006101000a81548160ff0219169083151502179055503260026000876000191660001916815260200190815260200160002060050160003273ffffffffffffffffffffffffffffffffffffffff1673ffffffffffffffffffffffffffffffffffffffff16815260200190815260200160002060006101000a81548173ffffffffffffffffffffffffffffffffffffffff021916908373ffffffffffffffffffffffffffffffffffffffff1602179055508215153373ffffffffffffffffffffffffffffffffffffffff1686600019167ff140259f1969eb057e0cf58bc6100b42c21fdb660c031c20a783a5c31aa5383460405160405180910390a45050505050565b8280548282559060005260206000209081019282156142b9579160200282015b828111156142b857825182559160200191906001019061429d565b5b5090506142c691906142ca565b5090565b6142ec91905b808211156142e85760008160009055506001016142d0565b5090565b905600a165627a7a723058209200c8fbbed636c5f802229391351eee702f9a0da83d03f20e34fe16843ca9d50029",
  "source": "/**\nCREDITS:\n\nStandardisation effort:\n\nInterface proposal & example implementation by Michael Connor, EY, 2019, including:\nFunctions, arrangement, logic, inheritance structure, and interactions with a proposed Verifier interface.\n\nWith thanks to:\nDuncan Westland\nChaitanya Konda\nHarry R\n*/\n\n/**\n@title Verifier_Registry\n@dev Example Verifier Registry Implementation.\n@notice Do not use this example in any production code!\n*/\n\npragma solidity ^0.4.24;\n\nimport \"./Verifier_Register_Library.sol\";\nimport \"./Verifier_Interface.sol\";\n\ncontract Verifier_Registry {\n\n    using Verifier_Register_Library for *;\n\n\n    event NewProofSubmitted(bytes32 indexed _proofId, uint256[] _proof, uint256[] _inputs);\n\n    event NewVkRegistered(bytes32 indexed _vkId);\n\n    event NewVerifierContractRegistered(address indexed _contractAddress);\n\n    event NewAttestation(bytes32 indexed _proofId, address indexed _verifier, bool indexed _result);\n\n\n    //mapped to by vkId:\n    mapping(bytes32 => Verifier_Register_Library.VkEntry) public vkRegister;\n    //duplicate of vkId within the structs, but allows one to lookup all vkId keys:\n    bytes32[] vkIds;\n    //mapped to by proofId:\n    mapping(bytes32 => Verifier_Register_Library.ProofEntry) public proofRegister;\n    //duplicate of proofId within the structs, but allows one to lookup all proofId keys.\n    bytes32[] proofIds;\n    //mapped to by verifierContract address:\n    mapping(address => Verifier_Register_Library.VerifierContractEntry) public verifierContractRegister;\n    //duplicate of contractAddress within the structs, but allows one to lookup all proofId keys.\n    address[] verifierContracts;\n\n\n    //This is the only getter function required by Verifier contracts. The other getter functions are an ugly consequence of limitations of not being able to easily 'get' data from mappings and structs in the current EVM.\n    function getVk(bytes32 _vkId) public view returns (uint256[]) {\n        return vkRegister[_vkId].vk;\n    }\n\n    function registerVerifierContract(address _verifierContract) public returns (bool) {\n        require(verifierContractRegister[_verifierContract].contractAddress == 0, \"Contract already registered\");\n\n        //create a new entry in the verifierContractRegister\n        verifierContractRegister[_verifierContract].contractAddress = _verifierContract;\n        verifierContractRegister[_verifierContract].submitter = msg.sender;\n        verifierContractRegister[_verifierContract].owner = msg.sender;\n\n        emit NewVerifierContractRegistered(_verifierContract);\n\n        return true;\n    }\n\n    function registerVk(uint256[] _vk, address[] _verifierContracts) public returns (bytes32) {\n        //create a new vkId\n        //VKID has to be a HASH of the contents of the vk, or people could call a verifier expecting their proof to be checked against a vk, but end up with a false positive (or false negative). due to a different vk being stored against the vkId in the verifier they call.\n        bytes32 vkId = createNewVkId(_vk);\n\n        if (vkRegister[vkId].vkId == 0) {\n            vkRegister[vkId].vkId = vkId;\n        }\n        //we also allow an already-registered vk to have more verifierContracts assigned to it through this function\n\n        for (uint i = 0; i < _verifierContracts.length; i++) {\n            //ensure the verifier contracts are all registered\n            require(verifierContractRegister[_verifierContracts[i]].contractAddress != 0, \"Verifier contract not yet registered\");\n\n            //update the verifierContractRegister:\n            verifierContractRegister[_verifierContracts[i]].vkIds.push(vkId);\n            //update the vk's register with any additional verifier contracts:\n            vkRegister[vkId].verifiers.push(_verifierContracts[i]);\n        }\n\n        //update the vkRegister:\n        vkRegister[vkId].vk = _vk;\n        vkRegister[vkId].vkSubmitter = msg.sender;\n\n        emit NewVkRegistered(vkId);\n\n        return vkId;\n    }\n\n    function submitProof(uint256[] _proof, uint256[] _inputs, bytes32 _vkId) public returns (bytes32) {\n\n      require(vkRegister[_vkId].vkId == _vkId, \"vkId not yet registered\");\n      //duplicate proofs are allowed - no check required!\n\n      bytes32 proofId = createNewProofId(_proof, _inputs);\n\n      //add proof to ProofRegister:\n      if (proofRegister[proofId].proofId == 0) {//proof not yet submitted\n        proofRegister[proofId].proofId = proofId;\n      }\n      proofRegister[proofId].proofSubmitters.push(tx.origin); //tx.origin ensures smart contracts which forward calls aren't being recorded as the submitter.\n      proofRegister[proofId].vkIds.push(_vkId); //we allow multiple vks to be mapped to by a proof (even though this is infeasible) because if there was a single slot, a malicious actor could fill it with the wrong vk.\n\n      //update the vkRegister with this association:\n      vkRegister[_vkId].proofIds.push(proofId);\n\n      emit NewProofSubmitted(proofId, _proof, _inputs);\n\n      return proofId;\n    }\n\n    //OVERLOADED - designed for verifier contracts to call, so as to associate themselves with the proof\n    function submitProof(uint256[] _proof, uint256[] _inputs, bytes32 _vkId, address _verifierContract) public returns (bytes32) {\n\n        require(verifierContractRegister[_verifierContract].contractAddress != 0, \"Verifier contract not yet registered\");\n        require(vkRegister[_vkId].vkId == _vkId, \"vkId not yet registered\");\n        //duplicate proofs are allowed - no check required!\n\n        bytes32 proofId = createNewProofId(_proof, _inputs);\n\n        //add proof to ProofRegister:\n        if (proofRegister[proofId].proofId == 0) {//proof not yet submitted\n            proofRegister[proofId].proofId = proofId;\n        }\n        proofRegister[proofId].proofSubmitters.push(tx.origin); //tx.origin ensures smart contracts which forward calls aren't being recorded as the submitter.\n        proofRegister[proofId].vkIds.push(_vkId); //we allow multiple vks to be mapped to by a proof (even though this is infeasible) because if there was a single slot, a malicious actor could fill it with the wrong vk.\n        proofRegister[proofId].verifiers.push(_verifierContract);\n\n        //update the vkRegister with this association:\n        vkRegister[_vkId].proofIds.push(proofId);\n\n        //update the verifierContractRegister with this association:\n        verifierContractRegister[_verifierContract].proofIds.push(proofId);\n\n        emit NewProofSubmitted(proofId, _proof, _inputs);\n\n        return proofId;\n    }\n\n\n    function submitProofAndVerify(uint256[] _proof, uint256[] _inputs, bytes32 _vkId, address _verifierContract) public returns (bytes32 proofId, bool result) {\n\n      require(vkRegister[_vkId].vkId == _vkId, \"vkId not yet registered\");\n      require(verifierContractRegister[_verifierContract].contractAddress != 0, \"Verifier contract not yet registered\");\n      //duplicate proofs are allowed - no check required!\n\n      proofId = createNewProofId(_proof, _inputs);\n\n      //add proof to ProofRegister:\n      if (proofRegister[proofId].proofId == 0) {//proof not yet submitted\n          proofRegister[proofId].proofId = proofId;\n      }\n      proofRegister[proofId].proofSubmitters.push(msg.sender);\n      proofRegister[proofId].vkIds.push(_vkId);//we allow multiple vks to be mapped to by a proof (even though this is infeasible) because if there was a single slot, a malicious actor could fill it with the wrong vk.\n      proofRegister[proofId].verifiers.push(_verifierContract);\n\n      //update the vkRegister with this association:\n      vkRegister[_vkId].proofIds.push(proofId);\n\n      //update the verifierContractRegister with this association:\n      verifierContractRegister[_verifierContract].proofIds.push(proofId);\n\n      emit NewProofSubmitted(proofId, _proof, _inputs);\n\n      //returns to the contract through attestProofs to change storage states before returning the result\n      Verifier_Interface verifierContract;\n      verifierContract = Verifier_Interface(_verifierContract);\n\n      result = verifierContract.verify(_proof, _inputs, _vkId, proofId);\n\n      emit NewAttestation(proofId, _verifierContract, result);\n\n      //attestProof\n      proofRegister[proofId].results[verifierContract] = result;\n      proofRegister[proofId].verifierCallers[msg.sender]=msg.sender;\n\n      return (proofId, result);\n    }\n\n\n\n    //including vkId is important, because otherwise a proof might be 'verified' against a bogus vk\n    function attestProof(bytes32 _proofId, bytes32 _vkId, bool _result) public {\n\n        require(proofRegister[_proofId].proofId == _proofId, \"proofId not yet registered\");\n        require(vkRegister[_vkId].vkId == _vkId, \"vkId not yet registered\");\n        bool vkAssociated = false;\n        for (uint i=0; i < proofRegister[_proofId].vkIds.length; i++) {\n            if (proofRegister[_proofId].vkIds[i] == _vkId) {\n              vkAssociated = true;\n            }\n        }\n        require(vkAssociated == true, \"This proofId has not been associated with this vkId\");\n\n        proofRegister[_proofId].results[msg.sender] = _result;\n        proofRegister[_proofId].verifierCallers[tx.origin]=tx.origin;\n\n        emit NewAttestation(_proofId, msg.sender, _result);\n    }\n\n\n\n    //including vkId is important, because otherwise a proof might be 'verified' against a bogus vk\n    function attestProofs(bytes32[] _proofIds, bytes32[] _vkIds, bool[] _results) public {\n\n        for (uint i = 0; i < _proofIds.length; i++) {\n            bytes32 proofId;\n            bytes32 vkId;\n            bool result;\n\n            proofId = _proofIds[i];\n            vkId = _vkIds[i];\n            result = _results[i];\n\n            require(proofRegister[proofId].proofId == proofId, \"proofId not yet registered\");\n            require(vkRegister[vkId].vkId == vkId, \"vkId not yet registered\");\n\n            proofRegister[proofId].vkIds.push(vkId);\n            proofRegister[proofId].results[msg.sender] = result;\n            proofRegister[proofId].verifierCallers[tx.origin] = tx.origin;\n\n            vkRegister[vkId].proofIds.push(proofId);\n\n            emit NewAttestation(proofId, msg.sender, result);\n        }\n    }\n\n    /*TODO - implement this\n    */\n    function challengeAttestation(bytes32 _proofId, uint256[] _proof, uint256[] _inputs, address _verifierContract) public {}\n\n\n    //we put this vkId creation in the registry, so that people 'trust' its calculation.\n    function createNewVkId(uint256[] _vk) public pure returns (bytes32) {\n\n        bytes32 newVkId = keccak256(abi.encodePacked(_vk));\n\n        return newVkId;\n    }\n\n    //we put this vkId creation in the registry, so that people 'trust' its calculation.\n    function createNewProofId(uint256[] _proof, uint256[] _inputs) public pure returns (bytes32) {\n\n        bytes32 newProofId = keccak256(abi.encodePacked(_proof, _inputs));\n\n        return newProofId;\n    }\n\n\n    //GETTER FUNCTIONS FOR STRUCTS - these do not form part of the standard.\n    //It's ugly, but Solidity doesn't give us a neat way of accessing structs via mappings from an external contract or from a web3 call.\n    //We can't even use the Verifier_Register library to assign native functions to the three Struct Types (proofEntry, vkEntry, verifierContractEntry) because we need to access the Structs through mappings, and hence 'complex' key types (arrays and mappings within the structs) are hidden from the external caller!\n    //Once ABIEncoder_V2 is production-ready, we can switch to that, which allows structs to be passed into and returned from functions.\n\n    function getProofEntryProofId(bytes32 _proofId) public view returns (bytes32) {return proofRegister[_proofId].proofId;}\n\n    function getProofEntryVkIds(bytes32 _proofId) public view returns (bytes32[]) {return proofRegister[_proofId].vkIds;}\n\n    function getProofEntryProofSubmitters(bytes32 _proofId) public view returns (address[]) {return proofRegister[_proofId].proofSubmitters;}\n\n    function getProofEntryVerifiers(bytes32 _proofId) public view returns (address[]) {return proofRegister[_proofId].verifiers;}\n\n    function getProofEntryResult(bytes32 _proofId, address _verifier) public view returns (bool) {return proofRegister[_proofId].results[_verifier];}\n\n    function getProofEntryVerifierCaller(bytes32 _proofId, address _verifier) public view returns (address) {return proofRegister[_proofId].verifierCallers[_verifier];}\n\n    function getProofEntryDescription(bytes32 _proofId) public view returns (string) {return proofRegister[_proofId].description;}\n\n\n    function getVkEntryVkId(bytes32 _vkId) public view returns (bytes32) {return vkRegister[_vkId].vkId;}\n\n    function getVkEntryVk(bytes32 _vkId) public view returns (uint256[]) {return vkRegister[_vkId].vk;}\n\n    function getVkEntryVkSubmitter(bytes32 _vkId) public view returns (address) {return vkRegister[_vkId].vkSubmitter;}\n\n    function getVkEntryVerifiers(bytes32 _vkId) public view returns (address[]) {return vkRegister[_vkId].verifiers;}\n\n    function getVkEntryProofIds(bytes32 _vkId) public view returns (bytes32[]) {return vkRegister[_vkId].proofIds;}\n\n    function getVkEntryDescription(bytes32 _vkId) public view returns (string) {return vkRegister[_vkId].description;}\n\n\n    function getVerifierContractAddress(address _contractAddress) public view returns (address) {return verifierContractRegister[_contractAddress].contractAddress;}\n\n    function getVerifierContractEntrySubmitter(address _contractAddress) public view returns (address) {return verifierContractRegister[_contractAddress].submitter;}\n\n    function getVerifierContractEntryOwner(address _contractAddress) public view returns (address) {return verifierContractRegister[_contractAddress].owner;}\n\n    function getVerifierContractEntryVkIds(address _contractAddress) public view returns (bytes32[]) {return verifierContractRegister[_contractAddress].vkIds;}\n\n    function getVerifierContractEntryProofIds(address _contractAddress) public view returns (bytes32[]) {return verifierContractRegister[_contractAddress].proofIds;}\n\n    function getVerifierContractEntryDescription(address _contractAddress) public view returns (string) {return verifierContractRegister[_contractAddress].description;}\n\n}\n",
  "sourcePath": "/Users/em137vl/git/zksnark-verifier-standard/implementation/contracts/Verifier_Registry.sol",
  "compiler": {
    "name": "solc",
    "version": "0.4.24+commit.e67f0147.Emscripten.clang"
  },
  "schemaVersion": "3.0.1",
  "updatedAt": "2019-03-04T11:58:28.697Z",
  "devdoc": {
    "methods": {}
  },
  "userdoc": {
    "methods": {}
  }
}